:020000040800F2
:100000008006022099020008DD1100085111000845
:10001000D91100083F040008CD14000800000000BA
:10002000000000000000000000000000B9120008FD
:1000300043040008000000001912000861140008C1
:10004000B3020008B3020008B3020008B3020008BC
:10005000B3020008B3020008B3020008B3020008AC
:10006000B3020008B3020008B3020008B30200089C
:10007000B3020008B3020008B3020008B30200088C
:10008000B3020008B3020008B3020008B30200087C
:10009000B3020008B3020008B3020008B30200086C
:1000A000B3020008B3020008B3020008B30200085C
:1000B000B3020008B3020008B3020008B30200084C
:1000C000B3020008B3020008B3020008B30200083C
:1000D000B3020008B3020008B3020008B30200082C
:1000E000B3020008B3020008B3020008B30200081C
:1000F000B3020008B3020008B3020008B30200080C
:10010000B3020008B3020008B3020008B3020008FB
:10011000B3020008B3020008B3020008B3020008EB
:10012000B3020008B3020008B3020008B3020008DB
:10013000B3020008B3020008B3020008B3020008CB
:10014000B3020008B3020008B3020008B3020008BB
:10015000B3020008B3020008B3020008B3020008AB
:10016000B3020008B3020008B3020008B30200089B
:10017000B3020008B3020008B30200080000000048
:10018000B3020008B3020008B3020008B30200087B
:10019000B3020008B3020008B3020008B30200086B
:1001A000B3020008B3020008B3020008B30200085B
:1001B000B3020008B3020008B3020008B30200084B
:1001C000B3020008B302000800000000B3020008F8
:1001D000B3020008B3020008B3020008B30200082B
:1001E000B3020008B3020008B3020008B30200081B
:1001F000B3020008B302000800F002F800F03CF877
:100200000AA090E8000C82448344AAF10107DA4571
:1002100001D100F031F8AFF2090EBAE80F0013F087
:10022000010F18BFFB1A43F001031847EC1200003E
:100230000C130000103A24BF78C878C1FAD85207CE
:1002400024BF30C830C144BF04680C607047000050
:100250000023002400250026103A28BF78C1FBD8CF
:10026000520728BF30C148BF0B6070471FB501F06F
:1002700041F91FBD10B510BD00F0A8F81146FFF7F9
:10028000F5FF01F025F900F0C6F803B4FFF7F2FF1F
:1002900003BC00F0CDF8000009488047094800473A
:1002A000FEE7FEE7FEE7FEE7FEE7FEE7FEE7FEE726
:1002B000FEE7FEE704480549054A064B7047000083
:1002C00069140008F901000880000220800602205D
:1002D000800202208002022053EA020C00F06980B2
:1002E0002DE9F04B4FF00006002B1FBFB3FA83F54A
:1002F00003FA05F424FA05F65E4012BF1643B2FA7B
:1003000082F502FA05F4C5F120051EBF22FA05FCAC
:1003100044EA0C04203556EA044C4FEA144418BF52
:10032000641C4FF000084FF00009904271EB030C81
:1003300039D3002919BFB1FA81F701FA07F6B0FAEB
:1003400080F700FA07F6C7F120071EBF20FA07FC66
:1003500046EA0C062037B6FBF4FCA7EB0507103F76
:1003600007F01F0BCBF120060CFA0BFB2CFA06F65C
:1003700044BFB3460026202FA4BF5E464FF0000BBB
:100380005BEA060C08BF4FF0010B19EB0B09ABFB46
:10039000027C48EB0608C01B06FB02CC0BFB03CC1F
:1003A00071EB0C01C1E70B46024641464846BDE8E9
:1003B000F08B13B54FF000004FF00001AFF3008059
:1003C000BDE81C407047704770477047754600F0A5
:1003D0002BF8AE4605006946534620F007008546D7
:1003E00018B020B5FFF766FFBDE820404FF00006CB
:1003F0004FF000074FF000084FF0000B21F007010D
:10040000AC46ACE8C009ACE8C009ACE8C009ACE84F
:10041000C0098D46704710B50446AFF300802046F2
:10042000BDE81040FFF731BF004870471C000220B4
:1004300001491820ABBEFEE726000200704700BF4E
:10044000FEE7704710B50446042000F049FE01485D
:10045000046010BD14000220F8B502460B460021CE
:1004600000250024002000BFE4E0012606FA01F583
:100470001E6806EA0504AC4271D15E68022E02D005
:100480005E68122E13D1CF0802F1200656F827001D
:100490004E07F70E0F26BE40B0434F07FF0E1E69F2
:1004A000BE403043CF0802F1200646F8270010680E
:1004B0004F000326BE40B0431E7906F003064F00EE
:1004C000BE40304310605E68012E08D05E68022E88
:1004D00005D05E68112E02D05E68122E13D190688E
:1004E0004F000326BE40B0434F00DE68BE4030439D
:1004F0009060506801268E40B0431E79C6F3001606
:100500008E4030435060D0684F000326BE40B04359
:100510004F009E68BE403043D0605E6806F0805653
:10052000B6F1805FA8D100BF444E366846F48046DD
:10053000424F3E603E46366806F48046009600BF55
:1005400000BF3F4E8F0856F827008E07370F0F2643
:10055000BE40B0433B4EB24202D100262EE068E0DE
:10056000394EB24201D1012628E0384EB24201D1C3
:10057000022623E0364EB24201D103261EE0354E5C
:10058000B24201D1042619E0334EB24201D1052610
:1005900014E0324EB24201D106260FE0304EB24294
:1005A00001D107260AE02F4EB24201D1082605E00C
:1005B0002D4EB24201D1092600E00A268F073F0FD7
:1005C000BE4030431E4E8F0846F82700274E306845
:1005D000A0435E6806F48036B6F5803F00D1204324
:1005E000224E3060361D3068A0435E6806F4003647
:1005F000B6F5003F00D120431C4E361D3060361D3D
:100600003068A0435E6806F48016B6F5801F00D1FE
:100610002043164E08363060361D3068A0435E68B1
:1006200006F40016B6F5001F00D120430F4E0C361D
:100630003060491C1029FFF418AFF8BD443802405F
:100640000838014000000240000402400008024057
:10065000000C02400010024000140240001802404A
:10066000001C02400020024000240240003C0140E7
:100670000AB1816101E00B048361704701480068A1
:100680007047000000000220034800680349097811
:100690000844014908607047000002200800022059
:1006A00010B50A48006840F4007008490860084620
:1006B000006840F480700860052000F06FF80F209B
:1006C00000F006F800F02AF8002010BD003C0240BF
:1006D00070B504460E4800784FF47A71B1FBF0F023
:1006E0000C490968B1FBF0F5284600F013FD08B18C
:1006F000012070BD102C07D200222146501E00F0B0
:100700000EF80548046001E00120F2E70020F0E760
:1007100008000220180002200400022070472DE982
:10072000F05F80460D461646002700F059FD07464B
:1007300039462A46334601F00700C0F1070ABAF1EC
:10074000040F02D94FF0040A01E0C0F1070AD146B4
:1007500000F1040ABAF1070F02D24FF0000A01E0DB
:10076000A0F1030AD4464FF0010A0AFA09FAAAF1E5
:10077000010A0AEA020A0AFA0CFA4FF0010B0BFA14
:100780000CFBABF1010B0BEA030B4AEA0B0421460D
:10079000404600F02DFDBDE8F09F000000BF00F0D6
:1007A0000702064B19684FF6FF031940044B0B4331
:1007B00043EA0221014B196000BF70470CED00E0D5
:1007C0000000FA0538B5002400BF2048006840F05A
:1007D00080501E4908600846006800F08050009074
:1007E00000BF00BF1A48006840F480301849086014
:1007F000FFF744FF044607E0FFF740FF001BB0F59A
:100800007A7F01D9032038BD1148406800F4803058
:10081000B0F5803FF0D10E48006840F400300C493C
:100820000860FFF72BFF044607E0FFF727FF001BD8
:10083000B0F57A7F01D90320E5E70548406800F468
:100840000030B0F5003FF0D10020DCE74038024036
:100850000070004070B504460D4600260CB901201A
:1008600070BD5C48006800F00F00A8420ED25948E5
:10087000006820F00F0028435649086008460068C9
:1008800000F00F00A84201D00120E9E7207800F035
:10089000020002281DD1207800F00400042805D1B0
:1008A0004D48006840F4E0504B490860207800F063
:1008B0000800082805D14848006840F460404649CF
:1008C00008604548006820F0F000A16808434249EC
:1008D0000860207800F0010090B36068012807D11B
:1008E0003D4808380068C0F34040A0B90120B7E790
:1008F0006068022807D1384808380068C0F34060B3
:1009000048B90120ACE7344808380068C0F340001B
:1009100008B90120A4E73048006820F003006168AE
:1009200008432D490860FFF7A9FE064609E0FFF7D6
:10093000A5FE801B41F28831884202D903208FE74F
:1009400007E02548006800F00C006168B0EB810FFB
:10095000EDD12048006800F00F00A8420ED91D48D4
:10096000006820F00F0028431A4908600846006814
:1009700000F00F00A84201D0012071E7207800F0BC
:100980000400042807D11448006820F4E050E1680E
:10099000084311490860207800F00800082808D1B1
:1009A0000D48006820F46040216940EAC1000A490E
:1009B000086000F0E1F808490968C1F30311074A2B
:1009C000515CC840064908600F20FFF781FE0020F7
:1009D00046E70000003C024008380240FE140008D0
:1009E0001800022010B5FFF749FE04465E48006873
:1009F00040F001005C49086006E0FFF73FFE001B85
:100A0000022801D9032010BD5748006800F00200F9
:100A10000028F2D05448006840F080005249086035
:100A2000FFF72CFE044600204F490831086008E01B
:100A3000FFF724FE001B41F28831884201D90320D0
:100A4000E1E749480830006800F00C000028EFD1C9
:100A5000FFF714FE04464448006820F45020424941
:100A6000086006E0FFF70AFE001B642801D9032096
:100A7000C9E73D48006800F400300028F2D1FFF7D4
:100A8000FDFD04463848006820F080703649086053
:100A900006E0FFF7F3FD001B022801D90320B2E7AF
:100AA0003148006800F000700028F2D1FFF7E6FD41
:100AB00004462D48006820F080602B49086006E05D
:100AC000FFF7DCFD001B642801D903209BE72648C3
:100AD000006800F000600028F2D1FFF7CFFD044667
:100AE0002148006820F080501F49086006E0FFF7A9
:100AF000C5FD001B642801D9032084E71A4800685B
:100B000000F000500028F2D118481749091D08606C
:100B100016481038144984310860091D08601248CD
:100B20000C30006820F4FE400F490C310860084684
:100B3000006840F47F0008600B487430006820F0C3
:100B400001000949743108600846006840F080706F
:100B500008600748074908600F20FFF7B9FD08B192
:100B6000012050E700204EE70038024010300024FA
:100B70000024F400180002202DE9F047002400258D
:100B80000026A1462548006800F00C0020B104288A
:100B900005D008283AD105E0DFF8849039E0DFF885
:100BA000849036E01D48001F006800F03F041B4899
:100BB000001F006800F4800078B11A481749091F27
:100BC0000968C1F38811A0FB017001462246002389
:100BD0003846FFF781FB05460EE011480F49091F13
:100BE0000968C1F38811A0FB017001462246002369
:100BF0003846FFF771FB05460848001F0068C0F340
:100C00000140401C4600B5FBF6F902E0DFF8109009
:100C100000BF00BF4846BDE8F0870000083802402A
:100C20000024F40040787D01F8B5044600260CB994
:100C30000120F8BD207800F00100002871D0F848AC
:100C4000006800F00C0004280DD0F548006800F0A2
:100C50000C00082813D1F248001F006800F480003F
:100C6000B0F5800F0BD1EE4808380068C0F3404063
:100C7000002869D06068002866D10120D9E700BF4C
:100C80006068B0F5803F08D1E5480838006840F456
:100C90008030E349083908602EE0606868B9E048B0
:100CA0000838006820F48030DD49083908600846BB
:100CB000006820F4802008601EE06068B0F5A02F76
:100CC0000DD1D7480838006840F48020D44908394D
:100CD00008600846006840F4803008600CE0D048A6
:100CE0000838006820F48030CD490839086008468B
:100CF000006820F48020086000BF606890B1FFF7B2
:100D0000BDFC054606E0FFF7B9FC401B642801D98D
:100D100003208EE7C24808380068C0F3404000282E
:100D2000F1D011E0FFF7AAFC054606E0FFF7A6FCAC
:100D3000401B642801D903207BE7B94808380068C4
:100D4000C0F340400028F1D1207800F002000228D2
:100D500069D1B348006800F00C0058B1B048006891
:100D600000F00C0008281CD1AD48001F006800F4FA
:100D70008000B0B9AA4808380068C0F3400020B12C
:100D8000E068012801D0012053E7A5480838006831
:100D900020F0F800216940EAC100A1490839086043
:100DA00041E0E06828B39E480838006840F0010040
:100DB0009B4908390860FFF761FC054606E0FFF72C
:100DC0005DFC401B022801D9032032E79448083813
:100DD0000068C0F340000028F1D09148083800684E
:100DE00020F0F800216940EAC1008D490839086007
:100DF00019E08B480838006820F00100884908395C
:100E00000860FFF73BFC054606E0FFF737FC401B98
:100E1000022801D903200CE7814808380068C0F394
:100E200040000028F1D1207800F00800082836D1D1
:100E30006069D0B17A486C30006840F001007849B0
:100E40006C310860FFF71AFC054606E0FFF716FC58
:100E5000401B022801D90320EBE671486C30006882
:100E6000C0F340000028F1D019E06D486C300068F4
:100E700020F001006A496C310860FFF7FFFB05466E
:100E800006E0FFF7FBFB401B022801D90320D0E658
:100E900063486C300068C0F340000028F1D120782E
:100EA00000F00400042874D15D483830006800F078
:100EB000805080B900BF5A483830006840F08050F8
:100EC0005749383108600846006800F080500090AB
:100ED00000BF00BF01265348006800F48070B0B91D
:100EE0005048006840F480704E490860FFF7C6FB28
:100EF000054606E0FFF7C2FB401B642801D903202A
:100F000097E64848006800F480700028F2D000BFDF
:100F1000A068012808D142486830006840F001000C
:100F20003F49683108602DE0A06868B93C486830E6
:100F3000006820F001003A496831086008460068FE
:100F400020F0040008601DE0A06805280DD1344899
:100F50006830006840F00400314968310860084694
:100F6000006840F0010008600CE02D48683000681F
:100F700020F001002A49683108600846006820F026
:100F80000400086000BFA068A8B1FFF777FB054622
:100F900009E02EE0FFF772FB401B41F288318842E6
:100FA00001D9032045E61E4868300068C0F34000C0
:100FB0000028EFD013E0FFF761FB054608E0FFF7DC
:100FC0005DFB401B41F28831884201D9032030E6A5
:100FD000134868300068C0F340000028EFD1012EAC
:100FE00007D10F483830006820F080500C49383164
:100FF0000860A069F0B30A48006800F00C000828F7
:1010000068D0A06902284DD105480838006820F052
:101010008070034908390860FFF730FB05460AE095
:101020000838024000700040FFF728FB401B0228F0
:1010300001D90320FDE529480068C0F3406000287D
:10104000F2D1D4E907010843616A40EA8111012223
:10105000A06AC2EB500041EA00412C20005D41EA49
:1010600000613020005D41EA00701C49091D0860E4
:10107000081F00E030E0006840F08070091F086041
:10108000FFF7FCFA054606E0FFF7F8FA401B0228D6
:1010900001D90320CDE511480068C0F34060002865
:1010A000F2D019E00D48006820F080700B4908600C
:1010B000FFF7E4FA054606E0FFF7E0FA401B0228D6
:1010C00001D90320B5E505480068C0F34060002859
:1010D000F2D101E00120ACE50020AAE50038024091
:1010E000042808D14FF0E021096941F004014FF0D4
:1010F000E022116107E04FF0E021096921F00401CD
:101100004FF0E0221161704710B5FFF7BDFA00F013
:1011100073F910BD70B504462546681EB0F1807F96
:1011200001D301200FE0681E4FF0E02148610F213C
:101130004FF0FF3000F05CF800204FF0E0218861B4
:1011400007200861002070BD10B5FFF7DDFF10BD5E
:1011500000BFFEE700B587B000BF1D48006840F043
:1011600002001B4908600846006800F00200019078
:1011700000BF00BF00BF0846006840F002000860E2
:101180000846006800F00200019000BF00BF022086
:1011900002900120039004900320059002A90D48BD
:1011A000FFF75AF901200290039004900320059064
:1011B00002A90848FFF750F9012202210548FFF76C
:1011C00057FA012211460348FFF752FA07B000BD53
:1011D000303802400004024000BFFEE770470000C4
:1011E00002480068C0F30220704700000CED00E0E8
:1011F00010B5002807DA0A07140E054A00F00F039D
:101200001B1FD45403E00A07130E024A135410BDE7
:1012100018ED00E000E400E07047000010B5002386
:10122000234C236000BF00BF00BFBFF34F8F00BF40
:1012300000BF00BF231F1868C0F34E3100BFC0F3CA
:10124000C90200BF43F6E07303EA41134FF0404484
:1012500004EA82742343174C236000BF00BF131EAF
:10126000A2F10102EED10B1EA1F10101E7D100BFF5
:1012700000BF00BFBFF34F8F00BF00BF00BF0C4BCC
:10128000703B1B6843F48033094C703C236000BF03
:1012900000BF00BFBFF34F8F00BF00BF00BF00BF44
:1012A00000BF00BFBFF36F8F00BF00BF00BF10BD06
:1012B00084ED00E060EF00E07047000010B500BF73
:1012C00000BF00BF00BF00BFBFF34F8F00BF00BF14
:1012D00000BF00BF00BF00BFBFF36F8F00BF00BFE4
:1012E00000BF0020114908601148006840F4003038
:1012F0000F49086000BF00BF00BFBFF34F8F00BFA2
:1013000000BF00BF00BF00BF00BFBFF36F8F00BFB3
:1013100000BF00BF00BFFFF781FF04484C300068EA
:1013200040F0040001494C31086010BD50EF00E06E
:1013300014ED00E02DE9F04194B080460D461646CC
:101340001F460024FFF74EFB00BF2948006840F00D
:101350008050274908600846006800F080500190DE
:1013600000BF00BF00BF2348006840F4404021494F
:1013700008600846006800F44040019000BF00BFCC
:1013800000BF1C484068C0F380300028F9D101201C
:1013900007900004089002200D9041050E91CDF8B1
:1013A00040800F951196129707A8FFF73DFC044661
:1013B0000CB100BFFEE7FFF705FA04460CB100BF11
:1013C000FEE70F20029002200390002004904FF4CB
:1013D000A05005904FF480500690072102A8FFF717
:1013E00039FA04460CB100BFFEE714B0BDE8F08145
:1013F000403802400070004010B5FFF73FF9044646
:1014000015480068844211D913480068201AB0F5C5
:101410007A7F0BD311480068401C104908600E48C1
:10142000006800F57A700C49086013E00A4800680B
:10143000C0F1FF302044401CB0F57A7F0AD3074842
:101440000068401C054908600348006800F57A7090
:101450000149086010BD0000100002200C000220AD
:1014600010B5FFF771FE10BD1448006840F470001D
:10147000124908601248006840F0010010490860F5
:1014800000200F49083108600D4800680D490840E8
:101490000B4908600C48091D0860081F006820F40B
:1014A0008020091F0860002005490C3108604FF0BA
:1014B00000600249803908607047000088ED00E054
:1014C00000380240FFFFF6FE1030002400BFFEE7A8
:1014D000FFF7F4FEFFF7E4F80923022219214FF485
:1014E000D870FFF727FFD820FEF7ACFFFFF732FEDA
:1014F00000BFFEE74FF04070E1EE100A70470000B9
:1015000000000000000001020304060708090000B3
:10151000000001020304000038150008000002204A
:101520001C00000034020008541500081C000220B2
:1015300064060000500200080000000010000000D7
:10154000010000000000000000000000000000009A
:041550000024F4007F
:04000005080001F9F5
:00000001FF
