:020000040800F2
:1000000070060220990200087903000871030008B5
:100010007503000853030008ED030008000000000A
:100020000000000000000000000000007D03000848
:1000300057030008000000007B0300087F0300084E
:10004000B3020008B3020008B3020008B3020008BC
:10005000B3020008B3020008B3020008B3020008AC
:10006000B3020008B3020008B3020008B30200089C
:10007000B3020008B3020008B3020008B30200088C
:10008000B3020008B3020008B3020008B30200087C
:10009000B3020008B3020008B3020008B30200086C
:1000A000B3020008B3020008B3020008B30200085C
:1000B000B3020008B3020008B3020008B30200084C
:1000C000B3020008B3020008B3020008B30200083C
:1000D000B3020008B3020008B3020008B30200082C
:1000E000B3020008B3020008B3020008B30200081C
:1000F000B3020008B3020008B3020008B30200080C
:10010000B3020008B3020008B3020008B3020008FB
:10011000B3020008B3020008B3020008B3020008EB
:10012000B3020008B3020008B3020008B3020008DB
:10013000B3020008B3020008B3020008B3020008CB
:10014000B3020008B3020008B3020008B3020008BB
:10015000B3020008B3020008B3020008B3020008AB
:10016000B3020008B3020008B3020008B30200089B
:10017000B3020008B3020008B30200080000000048
:10018000B3020008B3020008B3020008B30200087B
:10019000B3020008B3020008B3020008B30200086B
:1001A000B3020008B3020008B3020008B30200085B
:1001B000B3020008B3020008B3020008B30200084B
:1001C000B3020008B302000800000000B3020008F8
:1001D000B3020008B3020008B3020008B30200082B
:1001E000B3020008B3020008B3020008B30200081B
:1001F000B3020008B302000800F002F800F03CF877
:100200000AA090E8000C82448344AAF10107DA4571
:1002100001D100F031F8AFF2090EBAE80F0013F087
:10022000010F18BFFB1A43F001031847D401000067
:10023000F4010000103A24BF78C878C1FAD85207F8
:1002400024BF30C830C144BF04680C607047000050
:100250000023002400250026103A28BF78C1FBD8CF
:10026000520728BF30C148BF0B6070471FB500F070
:10027000C1F81FBD10B510BD00F031F81146FFF7F1
:10028000F5FF00F0B5F800F04FF803B4FFF7F2FF08
:1002900003BC00F057F800000948804709480047B0
:1002A000FEE7FEE7FEE7FEE7FEE7FEE7FEE7FEE726
:1002B000FEE7FEE704480549054A064B7047000083
:1002C00089030008F901000870000220700602206E
:1002D0007002022070020220704770477047754616
:1002E00000F02CF8AE4605006946534620F00700A2
:1002F000854618B020B5FFF7DDFFBDE820404FF080
:1003000000064FF000074FF000084FF0000B21F0FF
:100310000701AC46ACE8C009ACE8C009ACE8C009CC
:10032000ACE8C0098D46704710B50446AFF30080B5
:100330002046BDE81040FFF7A8BF00000048704706
:100340000C00022001491820ABBEFEE72600020087
:10035000704700BFFEE7704703480068034909780B
:10036000084401490860704700000220080002208C
:1003700000BFFEE700BFFEE770477047704710B54B
:10038000FFF7EAFF10BD00001448006840F4700059
:10039000124908601248006840F0010010490860E6
:1003A00000200F49083108600D4800680D490840D9
:1003B0000B4908600C48091D0860081F006820F4FC
:1003C0008020091F0860002005490C3108604FF0AB
:1003D00000600249803908607047000088ED00E045
:1003E00000380240FFFFF6FE1030002400BFFEE799
:1003F000002070474FF04070E1EE100A7047000097
:1004000020040008000002200C0000003402000854
:100410002C0400080C0002206406000050020008B2
:0C042000000000001000000001000000BF
:04000005080001F9F5
:00000001FF
