:020000040800F2
:1000000088D002206D0300082D240008A1230008D9
:1000100029240008210900085D33000800000000C1
:10002000000000000000000000000000A90200081D
:10003000250900080000000005030008A9260008A3
:10004000653300088703000887030008870300085A
:1000500087030008870300086D090008870300086C
:10006000830900088D09000887030008870300083A
:100070008703000887030008870300088703000838
:100080008703000887030008870300088703000828
:100090008703000887030008870300088703000818
:1000A0008703000887030008870300088703000808
:1000B0008703000887030008B127000887030008AA
:1000C00087030008870300088703000887030008E8
:1000D00087030008C93100080932000849320008C6
:1000E00077090008870300088703000887030008D2
:1000F00087030008870300088703000887030008B8
:1001000087030008870300088703000887030008A7
:100110008703000887030008870300088703000897
:100120008703000887030008870300088703000887
:100130008703000887030008870300088703000877
:100140008703000887030008870300088703000867
:100150008703000887030008870300088703000857
:100160008703000887030008870300088703000847
:1001700087030008870300088703000800000000C9
:100180008703000887030008870300088703000827
:100190008703000887030008870300088703000817
:1001A0008703000887030008870300088703000807
:1001B00087030008870300088703000887030008F7
:1001C0008703000887030008000000008703000879
:1001D00087030008870300088703000887030008D7
:1001E00087030008870300088703000887030008C7
:1001F000870300088703000800F002F800F044F8C5
:100200000AA090E8000C82448344AAF10107DA4571
:1002100001D100F039F8AFF2090EBAE80F0013F07F
:10022000010F18BFFB1A43F001031847E8560000FE
:1002300008570000103A24BF78C878C1FAD852078E
:1002400024BF30C830C144BF04680C607047000050
:100250000023002400250026103A28BF78C1FBD8CF
:10026000520728BF30C148BF0B607047642900F0B7
:100270007F81732900F0E682002070471FB505F0EA
:1002800007FB1FBD10B510BD00F018FB1146FFF7AE
:10029000F5FF03F0B3F800F036FB03B4FFF7F2FF0D
:1002A00003BC03F067F800002D4B19680868B0E83C
:1002B000F04F80F30988BFF36F8F4FF0000080F399
:1002C000118870470000000008480068006880F34B
:1002D00008884FF0000080F3148862B661B6BFF35F
:1002E0004F8FBFF36F8F00DF00BF00BF08ED00E04E
:1002F000DFF80C00016841F470010160704700BF35
:1003000088ED00E0EFF30980BFF36F8F144B1A689C
:100310001EF0100F08BF20ED108A20E9F04F10608A
:1003200009B44FF0500072B680F31188BFF34F8FBD
:10033000BFF36F8F62B604F02BFB4FF0000080F329
:10034000118809BC19680868B0E8F04F1EF0100F5A
:1003500008BFB0EC108A80F30988BFF36F8F704735
:100360002C000220EFF30580704700000948804709
:1003700009480047FEE7FEE7FEE7FEE7FEE7FEE787
:10038000FEE7FEE7FEE7FEE704480549054A064B9F
:1003900070470000B1260008F901000888CA022051
:1003A00088D0022088CC022088CC0220704753EAF3
:1003B000020C00F069802DE9F04B4FF00006002B95
:1003C0001FBFB3FA83F503FA05F424FA05F65E407D
:1003D00012BF1643B2FA82F502FA05F4C5F1200500
:1003E0001EBF22FA05FC44EA0C04203556EA044CF0
:1003F0004FEA144418BF641C4FF000084FF0000986
:10040000904271EB030C39D3002919BFB1FA81F77F
:1004100001FA07F6B0FA80F700FA07F6C7F12007ED
:100420001EBF20FA07FC46EA0C062037B6FBF4FC98
:10043000A7EB0507103F07F01F0BCBF120060CFAC6
:100440000BFB2CFA06F644BFB3460026202FA4BFB0
:100450005E464FF0000B5BEA060C08BF4FF0010B45
:1004600019EB0B09ABFB027C48EB0608C01B06FB33
:1004700002CC0BFB03CC71EB0C01C1E70B4602462F
:1004800041464846BDE8F08B13B54FF000004FF0F1
:100490000001AFF30080BDE81C4070470FB4044971
:1004A00010B503AA029800F0D1F910BC5DF814FB56
:1004B000280002202DE9F0410E460446002020626B
:1004C0002046E168884730B3252805D0D4E90121CA
:1004D0009047206A401CF2E7E168204600278847E1
:1004E000050018D0A5F14100192802D820354FF495
:1004F00000673246294620462760FFF7B7FE40B125
:10050000012804D0F61D26F007060836D8E7361D68
:10051000D6E72846DAE7206ABDE8F08170B50C46D8
:100520000546012A05D02878800600D5EA6900230F
:1005300002E0012305E05B1C934202D2E05C00284C
:10054000F9D1A869E618C01AA861286A1844286277
:100550002846AFF3008004E0D5E9012114F8010B2F
:100560009047B442F8D32846AFF3008070BD000036
:100570002DE9F0410646002410687529314616A57C
:1005800010D0AFF30080002802DA404213A507E044
:1005900031688A0701D512A502E0490704D511A5E3
:1005A000012401E0AFF3008000210A2206F12407B4
:1005B00009E0B0FBF2FCB0FBF2F302FB1C003030B0
:1005C00078541846491C0028F3D123462A46304661
:1005D000BDE8F04100F0B2B8000000002D000000BE
:1005E0002B00000020000000032A40F2308010F0B1
:1005F000030C00F0158011F8013BBCF1020F6244BE
:1006000098BF11F801CB00F8013B38BF11F8013B4E
:10061000A2F1040298BF00F801CB38BF00F8013BFB
:1006200011F0030300F02580083AC0F0088051F86B
:10063000043B083A51F804CBA0E80810F5E7121D76
:100640005CBF51F8043B40F8043BAFF30080D20795
:1006500024BF11F8013B11F801CB48BF11F8012B61
:1006600024BF00F8013B00F801CB48BF00F8012B84
:10067000704710B5203AC0F00B80B1E81850203A0E
:10068000A0E81850B1E81850A0E81850BFF4F5AF32
:100690005FEA027C24BFB1E81850A0E8185044BFBC
:1006A00018C918C0BDE810405FEA827C24BF51F829
:1006B000043B40F8043B08BF7047D20728BF31F81D
:1006C000023B48BF11F8012B28BF20F8023B48BF6E
:1006D00000F8012B704702F0FF0343EA032242EACD
:1006E000024200F0C7B84FF0000200B5134694462E
:1006F0009646203922BFA0E80C50A0E80C50B1F17A
:100700002001BFF4F7AF090728BFA0E80C5048BF8D
:100710000CC05DF804EB890028BF40F8042B08BF2B
:10072000704748BF20F8022B11F0804F18BF00F827
:10073000012B704770477047704770472DE9F047AD
:100740000D4699469246044600F124080168880641
:1007500004D5E06921F01001216000E00120A842E9
:1007600001DD471B00E00027A1697A1902EB0900AF
:10077000081AA0612078C00602D42046AFF300809A
:10078000002608E0D4E901211AF806009047206A03
:10079000401C761C20624E45F4DB2078C0060AD54A
:1007A0002046AFF3008006E0D4E9012130209047D5
:1007B000206A401C2062381EA7F10107F4DC07E024
:1007C000D4E9012118F805009047206A401C2062F6
:1007D000281EA5F10105F3DC2046AFF30080207848
:1007E000000602D50220BDE8F0870120FBE70000EB
:1007F00001694A1C02610878704700B58FB0CDE9E5
:1008000001310021059105497944CDE903101146D4
:100810006846FFF74FFE0FB000BD0000E5FFFFFF89
:1008200010B5436913B1AFF3008001E0FFF776FE26
:10083000012010BD127800F124010A7000224A70D4
:100840000122EDE711684FF0FF32E9E7074B70B581
:100850000D467B44FFF7D1FF0446284600F02AF8F6
:1008600010B14FF0FF3070BD204670BD232B00004B
:100870004FF000020429C0F0128010F0030C3FF486
:1008800034AFCCF1040CBCF1020F18BF00F8012BFF
:10089000A8BF20F8022BA1EB0C01FFF726BF5FEAEF
:1008A000C17C24BF00F8012B00F8012B48BF00F8E1
:1008B000012B7047007B00F080007047754600F008
:1008C0002BF8AE4605006946534620F007008546E2
:1008D00018B020B5FFF758FDBDE820404FF00006E6
:1008E0004FF000074FF000084FF0000B21F0070118
:1008F000AC46ACE8C009ACE8C009ACE8C009ACE85B
:10090000C0098D46704710B50446AFF300802046FD
:10091000BDE81040FFF7C1BC0048704728CA02205C
:1009200000BFFEE77047000070B50446042000F0E9
:10093000E9FE0C48046025464FF47A7045430120D7
:10094000094908804FF0E020006940F002004FF0B4
:10095000E021086108464561006940F00100086136
:1009600070BD0000140002201800022010B5012004
:1009700000F044F810BD10B54FF4005000F03EF800
:1009800010BD10B5042000F039F810BD10B50820D6
:1009900000F034F810BD704770477047704701464B
:1009A00091F83500022803D0802048650120704767
:1009B000052081F835000868006820F001000A6809
:1009C00010600020F3E710B50446012C10D0042C71
:1009D00008D0082C03D0B4F5005F0CD105E0FFF778
:1009E000DAFF08E0FFF7D8FF05E0FFF7D6FF02E0E7
:1009F000FFF7D4FF00BF00BF10BD000010B50446D4
:100A000004480068204020B1024804602046FFF7F7
:100A1000DAFF10BD143C0140F8B502460B46002138
:100A200000250024002000BFE4E0012606FA01F5BD
:100A30001E6806EA0504AC4271D15E68022E02D03F
:100A40005E68122E13D1CF0802F1200656F8270057
:100A50004E07F70E0F26BE40B0434F07FF0E1E692C
:100A6000BE403043CF0802F1200646F82700106848
:100A70004F000326BE40B0431E7906F003064F0028
:100A8000BE40304310605E68012E08D05E68022EC2
:100A900005D05E68112E02D05E68122E13D19068C8
:100AA0004F000326BE40B0434F00DE68BE403043D7
:100AB0009060506801268E40B0431E79C6F3001640
:100AC0008E4030435060D0684F000326BE40B04394
:100AD0004F009E68BE403043D0605E6806F080568E
:100AE000B6F1805FA8D100BF444E366846F4804618
:100AF000424F3E603E46366806F48046009600BF90
:100B000000BF3F4E8F0856F827008E07370F0F267D
:100B1000BE40B0433B4EB24202D100262EE068E018
:100B2000394EB24201D1012628E0384EB24201D1FD
:100B3000022623E0364EB24201D103261EE0354E96
:100B4000B24201D1042619E0334EB24201D105264A
:100B500014E0324EB24201D106260FE0304EB242CE
:100B600001D107260AE02F4EB24201D1082605E046
:100B70002D4EB24201D1092600E00A268F073F0F11
:100B8000BE4030431E4E8F0846F82700274E30687F
:100B9000A0435E6806F48036B6F5803F00D120435E
:100BA000224E3060361D3068A0435E6806F4003681
:100BB000B6F5003F00D120431C4E361D3060361D77
:100BC0003068A0435E6806F48016B6F5801F00D139
:100BD0002043164E08363060361D3068A0435E68EC
:100BE00006F40016B6F5001F00D120430F4E0C3658
:100BF0003060491C1029FFF418AFF8BD443802409A
:100C00000838014000000240000402400008024091
:100C1000000C024000100240001402400018024084
:100C2000001C02400020024000240240003C014021
:100C30000AB1816101E00B048361704701480068DB
:100C4000704700000000022003480068034909784B
:100C50000844014908607047000002200800022093
:100C600010B50A48006840F400700849086008465A
:100C7000006840F480700860052000F07BF80F20C9
:100C800000F006F800F02AF8002010BD003C0240F9
:100C900070B504460E4800784FF47A71B1FBF0F05D
:100CA0000C490968B1FBF0F5284600F04BFD08B18E
:100CB000012070BD102C07D200222146501E00F0EA
:100CC0001BF80548046001E00120F2E70020F0E78E
:100CD00008000220BC00022004000220704700BF70
:100CE00000F01F02012191404209920002F1E0222E
:100CF000C2F8001100BF70472DE9F05F80460D4635
:100D00001646002701F094FB074639462A4633462B
:100D100001F00700C0F1070ABAF1040F02D94FF041
:100D2000040A01E0C0F1070AD14600F1040ABAF151
:100D3000070F02D24FF0000A01E0A0F1030AD446E7
:100D40004FF0010A0AFA09FAAAF1010A0AEA020AAC
:100D50000AFA0CFA4FF0010B0BFA0CFBABF1010B8A
:100D60000BEA030B4AEA0B042146404601F068FBFC
:100D7000BDE8F09F00BF00F00702064B19684FF670
:100D8000FF031940044B0B4343EA0221014B196056
:100D900000BF70470CED00E00000FA0538B50024F4
:100DA00000BF2048006840F080501E490860084697
:100DB000006800F08050009000BF00BF1A48006833
:100DC00040F4803018490860FFF738FF044607E018
:100DD000FFF734FF001BB0F57A7F01D9032038BD3F
:100DE0001148406800F48030B0F5803FF0D10E48E3
:100DF000006840F400300C490860FFF71FFF04460C
:100E000007E0FFF71BFF001BB0F57A7F01D9032035
:100E1000E5E70548406800F40030B0F5003FF0D148
:100E20000020DCE7403802400070004070B5044606
:100E30000D4600260CB9012070BD5C48006800F02A
:100E40000F00A8420ED25948006820F00F00284336
:100E5000564908600846006800F00F00A84201D01B
:100E60000120E9E7207800F0020002281DD1207857
:100E700000F00400042805D14D48006840F4E0501B
:100E80004B490860207800F00800082805D1484840
:100E9000006840F46040464908604548006820F01A
:100EA000F000A168084342490860207800F0010082
:100EB00090B36068012807D13D4808380068C0F346
:100EC0004040A0B90120B7E76068022807D1384840
:100ED00008380068C0F3406048B90120ACE73448E6
:100EE00008380068C0F3400008B90120A4E7304882
:100EF000006820F00300616808432D490860FFF78F
:100F00009DFE064609E0FFF799FE801B41F28831FD
:100F1000884202D903208FE707E02548006800F0E7
:100F20000C006168B0EB810FEDD12048006800F043
:100F30000F00A8420ED91D48006820F00F0028437A
:100F40001A4908600846006800F00F00A84201D066
:100F5000012071E7207800F00400042807D114482C
:100F6000006820F4E050E1680843114908602078E7
:100F700000F00800082808D10D48006820F46040FF
:100F8000216940EAC1000A49086000F007F90849F0
:100F90000968C1F30311074A515CC840064908605B
:100FA0000F20FFF775FE002046E70000003C0240DE
:100FB00008380240C2580008BC00022010B5FFF7F4
:100FC0003DFE04465E48006840F001005C49086050
:100FD00006E0FFF733FE001B022801D9032010BDF5
:100FE0005748006800F002000028F2D0544800681A
:100FF00040F0800052490860FFF720FE04460020C0
:101000004F490831086008E0FFF718FE001B41F265
:101010008831884201D90320E1E749480830006857
:1010200000F00C000028EFD1FFF708FE044644480A
:10103000006820F450204249086006E0FFF7FEFDFA
:10104000001B642801D90320C9E73D48006800F46B
:1010500000300028F2D1FFF7F1FD0446384800685F
:1010600020F080703649086006E0FFF7E7FD001BBE
:10107000022801D90320B2E73148006800F000706F
:101080000028F2D1FFF7DAFD04462D48006820F071
:1010900080602B49086006E0FFF7D0FD001B642844
:1010A00001D903209BE72648006800F00060002873
:1010B000F2D1FFF7C3FD04462148006820F08050BC
:1010C0001F49086006E0FFF7B9FD001B642801D93D
:1010D000032084E71A48006800F000500028F2D18D
:1010E00018481749091D08601648103814498431FA
:1010F0000860091D086012480C30006820F4FE40AA
:101100000F490C3108600846006840F47F00086011
:101110000B487430006820F0010009497431086000
:101120000846006840F0807008600748074908607A
:101130000F20FFF7ADFD08B1012050E700204EE77A
:1011400000380240103000240024F400BC000220CB
:101150000148006870470000BC00022000B5FFF79E
:10116000F7FF04490968C1F38221034A515CC84072
:1011700000BD000008380240D258000800B5FFF753
:10118000E7FF04490968C1F34231034A515CC84092
:1011900000BD000008380240D25800082DE9F04791
:1011A000002400250026A1462548006800F00C0018
:1011B00020B1042805D008283AD105E0DFF8849052
:1011C00039E0DFF8849036E01D48001F006800F029
:1011D0003F041B48001F006800F4800078B11A48E3
:1011E0001749091F0968C1F38811A0FB0170014666
:1011F000224600233846FFF7DAF805460EE011488C
:101200000F49091F0968C1F38811A0FB017001464D
:10121000224600233846FFF7CAF805460848001F53
:101220000068C0F30140401C4600B5FBF6F902E03F
:10123000DFF8109000BF00BF4846BDE8F08700000F
:10124000083802400024F40040787D01F8B50446D7
:1012500000260CB90120F8BD207800F0010000281C
:1012600071D0F848006800F00C0004280DD0F54853
:10127000006800F00C00082813D1F248001F006835
:1012800000F48000B0F5800F0BD1EE4808380068FC
:10129000C0F34040002869D06068002866D1012072
:1012A000D9E700BF6068B0F5803F08D1E54808384D
:1012B000006840F48030E349083908602EE0606837
:1012C00068B9E0480838006820F48030DD49083902
:1012D00008600846006820F4802008601EE060680E
:1012E000B0F5A02F0DD1D7480838006840F4802011
:1012F000D449083908600846006840F48030086026
:101300000CE0D0480838006820F48030CD49083916
:1013100008600846006820F48020086000BF60680C
:1013200090B1FFF78BFC054606E0FFF787FC401BFA
:10133000642801D903208EE7C24808380068C0F34A
:1013400040400028F1D011E0FFF778FC054606E0A8
:10135000FFF774FC401B642801D903207BE7B948E0
:1013600008380068C0F340400028F1D1207800F030
:101370000200022869D1B348006800F00C0058B19F
:10138000B048006800F00C0008281CD1AD48001FD0
:10139000006800F48000B0B9AA4808380068C0F3BB
:1013A000400020B1E068012801D0012053E7A548A2
:1013B0000838006820F0F800216940EAC100A1491E
:1013C0000839086041E0E06828B39E4808380068A2
:1013D00040F001009B4908390860FFF72FFC0546E3
:1013E00006E0FFF72BFC401B022801D9032032E75F
:1013F000944808380068C0F340000028F1D09148B4
:101400000838006820F0F800216940EAC1008D49E1
:101410000839086019E08B480838006820F001009E
:10142000884908390860FFF709FC054606E0FFF720
:1014300005FC401B022801D903200CE7814808382D
:101440000068C0F340000028F1D1207800F00800C7
:10145000082836D16069D0B17A486C30006840F015
:10146000010078496C310860FFF7E8FB054606E0AB
:10147000FFF7E4FB401B022801D90320EBE671488B
:101480006C300068C0F340000028F1D019E06D48CE
:101490006C30006820F001006A496C310860FFF789
:1014A000CDFB054606E0FFF7C9FB401B022801D92A
:1014B0000320D0E663486C300068C0F34000002889
:1014C000F1D1207800F00400042874D15D48383050
:1014D000006800F0805080B900BF5A48383000687A
:1014E00040F080505749383108600846006800F0E5
:1014F0008050009000BF00BF01265348006800F4F0
:101500008070B0B95048006840F480704E4908605F
:10151000FFF794FB054606E0FFF790FB401B6428AD
:1015200001D9032097E64848006800F4807000283D
:10153000F2D000BFA068012808D142486830006896
:1015400040F001003F49683108602DE0A06868B9AB
:101550003C486830006820F001003A496831086072
:101560000846006820F0040008601DE0A068052817
:101570000DD134486830006840F0040031496831CA
:1015800008600846006840F0010008600CE02D4843
:101590006830006820F001002A4968310860084678
:1015A000006820F00400086000BFA068A8B1FFF741
:1015B00045FB054609E02EE0FFF740FB401B41F2EA
:1015C0008831884201D9032045E61E48683000680A
:1015D000C0F340000028EFD013E0FFF72FFB0546D3
:1015E00008E0FFF72BFB401B41F28831884201D90C
:1015F000032030E6134868300068C0F3400000283C
:10160000EFD1012E07D10F483830006820F080500C
:101610000C4938310860A069F0B30A48006800F04E
:101620000C00082868D0A06902284DD10548083868
:10163000006820F08070034908390860FFF7FEFA5F
:1016400005460AE00838024000700040FFF7F6FA4D
:10165000401B022801D90320FDE529480068C0F39A
:1016600040600028F2D1D4E907010843616A40EAEA
:1016700081110122A06AC2EB500041EA00412C20F6
:10168000005D41EA00613020005D41EA00701C49C4
:10169000091D0860081F00E030E0006840F080701D
:1016A000091F0860FFF7CAFA054606E0FFF7C6FA09
:1016B000401B022801D90320CDE511480068C0F382
:1016C00040600028F2D019E00D48006820F08070DA
:1016D0000B490860FFF7B2FA054606E0FFF7AEFADD
:1016E000401B022801D90320B5E505480068C0F376
:1016F00040600028F2D101E00120ACE50020AAE51D
:1017000000380240042808D14FF0E021096941F077
:1017100004014FF0E022116107E04FF0E021096978
:1017200021F004014FF0E0221161704710B503F081
:10173000CDFD012801D003F03DFAFFF785FA00F056
:101740007FFF10BD70B504462546681EB0F1807F4E
:1017500001D301200FE0681E4FF0E02148610F2106
:101760004FF0FF3000F06CFE00204FF0E021886168
:1017700007200861002070BD10B5FFF7D7FF10BD2E
:1017800070477047704710B5044620680069C0F381
:101790004000D8B12068C068C0F34000B0B16FF01D
:1017A000020021680861012020772068806900F02C
:1017B000030018B12046FFF7E5FF05E0204600F0E2
:1017C000BEF8204600F0D8F9002020772068006994
:1017D000C0F38000D8B12068C068C0F38000B0B109
:1017E0006FF004002168086102202077206880697A
:1017F00000F4407018B12046FFF7C4FF05E0204612
:1018000000F09DF8204600F0B7F90020207720680E
:101810000069C0F3C000D8B12068C068C0F3C00040
:10182000B0B16FF0080021680861042020772068BB
:10183000C06900F0030018B12046FFF7A3FF05E0E0
:10184000204600F07CF8204600F096F90020207732
:1018500020680069C0F30010D8B12068C068C0F3E8
:101860000010B0B16FF010002168086108202077E7
:101870002068C06900F4407018B12046FFF782FF6D
:1018800005E0204600F05BF8204600F075F90020E6
:1018900020772068006900F0010058B12068C06816
:1018A00000F0010030B16FF00100216808612046AE
:1018B00000F08AF920680069C0F3C01058B12068B0
:1018C000C068C0F3C01030B16FF0800021680861BB
:1018D0002046FFF755FF20680069C0F3002058B18B
:1018E0002068C068C0F3C01030B16FF0800021687C
:1018F00008612046FFF744FF20680069C0F38010AC
:1019000058B12068C068C0F3801030B16FF040005B
:1019100021680861204600F063F920680069C0F37F
:10192000401058B12068C068C0F3401030B16FF06B
:101930002000216808612046FFF723FF10BD704793
:1019400070B504460D46164600BF94F83C000128C9
:1019500001D1022070BD012084F83C0000BF0220AC
:1019600084F83D000C2E51D005DC4EB1042E1ED063
:10197000082E7AD133E0102E60D0142EF9D175E004
:101980002946206800F0A2FF2068806940F0080026
:10199000216888612068806920F0040021688861DE
:1019A00020688069296908432168886177E02946B1
:1019B000206800F0C5FF2068806940F4006021685D
:1019C00088612068806920F48060216888612068CF
:1019D0008069296940EA0120216888615FE0294621
:1019E000206800F0EBFF2068C06940F00800216823
:1019F000C8612068C06920F004002168C8612068BF
:101A0000C069296908432168C86148E029462068FF
:101A100001F012F82068C06940F400602168C861D4
:101A20002068C06920F480602168C8612068C069AE
:101A3000296940EA01202168C86130E02946206810
:101A400001F02CF82068406D40F0080021684865DE
:101A50002068406D20F00400216848652068406DD2
:101A6000296908432168486519E017E0294620687C
:101A700001F040F82068406D40F40060216848653E
:101A80002068406D20F48060216848652068406DC2
:101A9000296940EA01202168486500E000BF00BFD5
:101AA000012084F83D0000BF002084F83C0000BF06
:101AB00000BF4FE710B504460CB9012010BD94F8E3
:101AC0003D0028B9002084F83C00204600F00CF8C6
:101AD000022084F83D00211D206800F071FE0120E5
:101AE00084F83D000020E9E710B586B004461F49A0
:101AF0002068884238D100BF1D48006840F00200CD
:101B00001B4908600846006800F00200009000BF12
:101B100000BF00BF16481030006840F002001449B2
:101B2000103108600846006800F00200009000BF15
:101B300000BF0120019002200290012003900320A9
:101B400004900220059001A90A48FEF765FF0220D3
:101B50000190029001200390032004900220059040
:101B600001A90448FEF758FF06B010BD000400406C
:101B700030380240000402407047000030B504468F
:101B80000D4601222946206800F092FE0C4920688B
:101B9000884203D00B492068884201D1012000E02F
:101BA000002028B12068406C40F40040216848645F
:101BB0002068006840F0010021680860002030BD06
:101BC000000001400004014010B5044603492068AC
:101BD000884201D100F0EAFD10BD0000000800407D
:101BE0007047704701460022002391F8692091F860
:101BF0006A3042EA030070472DE9F041044620684C
:101C0000C569206806682068876805F00F08B8F184
:101C1000000F0AD105F0200038B106F0200020B1F5
:101C2000204601F05BF8BDE8F081B8F1000F7BD0F1
:101C300007F0010018B906F49070002874D005F080
:101C4000010048B106F4807030B1012021680862BB
:101C5000E06E40F00100E06605F0020048B107F0D8
:101C6000010030B1022021680862E06E40F00400FB
:101C7000E06605F0040048B107F0010030B104202F
:101C800021680862E06E40F00200E06605F008009E
:101C900060B106F0200010B907F0010030B1082053
:101CA00021680862E06E40F00800E066E06E58B31C
:101CB00005F0200028B106F0200010B1204601F008
:101CC0000DF8E06E00F0080020B92068806800F090
:101CD000400018B3204600F0E1FF2068806800F063
:101CE0004000B8B12068806820F04000216888601A
:101CF000606E50B11748616E0865606EFEF74FFE6A
:101D000010B1606E016D88470DE02046FFF769FF56
:101D100009E009E02046FFF764FF04E02046FFF7F2
:101D200060FF0020E0667EE705F0800030B106F03D
:101D3000800018B1204601F0DBF974E705F040009F
:101D400030B106F0400018B1204600F0B7FF6AE756
:101D500000BF68E7852C000810B504460CB90120C7
:101D600010BDA06900B100E000BF94F8690028B977
:101D7000002084F86800204600F02AF8242084F827
:101D800069002068006820F0010021680860204692
:101D900000F0E8FF012800D1E2E7606A10B12046B8
:101DA00000F0D4FE2068406820F49040216848602C
:101DB0002068806820F02A00216888602068006818
:101DC00040F0010021680860204600F034FFC7E7BA
:101DD00010B586B0044656492068884234D100BF09
:101DE0005448006840F00100524908600846006805
:101DF00000F00100009000BF00BF00BF4D4814304C
:101E0000006840F010004B49143108600846006833
:101E100000F01000009000BF00BF4FF4C0600190C0
:101E200002200290012003900220049007200590D8
:101E300001A94148FEF7F0FD002202212520FEF70E
:101E40005BFF2520FEF74BFF3C492068884233D1D9
:101E500000BF3848006840F0010036490860084675
:101E6000006800F00100009000BF00BF00BF3148D3
:101E70001030006840F400302E49103108600846E8
:101E8000006800F40030009000BF00BF0C200190FB
:101E90000220029001200390022004900720059068
:101EA00001A92548FEF7B8FD012202212620FEF7F0
:101EB00023FF2620FEF713FF21492068884234D1F2
:101EC00000BF1C48006840F002001A49086008463C
:101ED000006800F00200009000BF00BF00BF15487E
:101EE0001030006840F48020124910310860084624
:101EF000006800F48020009000BF00BF4FF44060F5
:101F000001900220029001200390022004900720FB
:101F1000059001A90B48FEF77FFD022211462720FC
:101F2000FEF7EAFE2720FEF7DAFE06B010BD00003D
:101F300000100140303802400000024000440040E0
:101F4000004800400004024010B5034693F86A00C0
:101F5000202855D101B10AB9012010BD00BF93F866
:101F60006800012801D10220F7E7012083F868000A
:101F700000BF5965A3F85820A3F85A2000BF9868FD
:101F8000B0F5805F0AD1186920B940F2FF10A3F8BC
:101F90005C001CE0FF20A3F85C0018E0986848B9DA
:101FA000186918B9FF20A3F85C0010E07F20A3F89F
:101FB0005C000CE09868B0F1805F08D1186918B92E
:101FC0007F20A3F85C0002E03F20A3F85C0000BF84
:101FD0000020D866222083F86A0000BF002083F822
:101FE000680000BF1868806840F001001C68A060AD
:101FF0001868006840F490701C6820600020ACE70E
:102000000220AAE7C74A016891422BD1C649098834
:1020100001F4004100297AD1C349098801F48041C3
:1020200000293DD0C14909780A291CD0BE49098838
:102030004BF6FF721140BC4A1180BC4909781288E6
:10204000C2F30D02BA4B9954B7490988491CB64AE4
:10205000118011460988C1F30D01B1F5806F56DB7F
:102060000021118053E0B1490978AF4A1288C2F3C8
:102070000D02AF4B9954AC490988491CAA4A1180FA
:1020800011460988C1F30D01B1F5806F01DB002114
:102090001180A549098841F40041A34A118036E026
:1020A000A24909780D291CD1A04909789E4A1288B5
:1020B000C2F30D029E4B99549B490988491C9A4AC8
:1020C000118011460988C1F30D01B1F5806F01DB64
:1020D000002111809449098841F48041924A11807D
:1020E00015E092490978904A1288C2F30D02904B8C
:1020F00099548D490988491C8B4A118011460988D9
:10210000C1F30D01B1F5806F01DB00211180894A17
:10211000016891422AD18849098801F400410029C7
:102120007AD18549098801F48041E9B38349097866
:102130000A291CD0804909884BF6FF7211407E4A5B
:1021400011807E4909781288C2F30D027C4B9954A4
:1021500079490988491C784A118011460988C1F3D8
:102160000D01B1F5806F57DB0021118054E07349F8
:102170000978714A1288C2F30D02714B99546E4965
:102180000988491C6C4A118011460988C1F30D0168
:10219000B1F5806F01DB002111806749098841F4A6
:1021A0000041654A118037E0FFE7644909780D294D
:1021B0001CD162490978604A1288C2F30D02604B53
:1021C00099545D490988491C5B4A11801146098868
:1021D000C1F30D01B1F5806F01DB0021118056497B
:1021E000098841F48041544A118015E05349097827
:1021F000514A1288C2F30D02514B99544E49098835
:10220000491C4D4A118011460988C1F30D01B1F5F1
:10221000806F01DB002111804A4A016891422AD176
:102220004949098801F4004100297AD146490988C1
:1022300001F48041E9B3454909780A291CD0424993
:1022400009884BF6FF7211403F4A11803F490978D7
:102250001288C2F30D023E4B99543B490988491C30
:10226000394A118011460988C1F30D01B1F5806F1B
:1022700057DB0021118054E034490978324A128832
:10228000C2F30D02324B99542F490988491C2E4A3A
:10229000118011460988C1F30D01B1F5806F01DB92
:1022A000002111802849098841F40041264A118003
:1022B00037E0FFE7254909780D291CD12349097822
:1022C000214A1288C2F30D02214B99541E490988F4
:1022D000491C1D4A118011460988C1F30D01B1F551
:1022E000806F01DB002111801749098841F480418A
:1022F000154A118015E015490978134A1288C2F36E
:102300000D02134B995410490988491C0E4A11803B
:1023100011460988C1F30D01B1F5806F01DB002181
:1023200011807047001001401C0002202200022092
:102330008C010220004400401E00022023000220E5
:102340008C050220004800402000022024000220CA
:102350008C0902207047000010B50446024800F0C6
:1023600019F800F0FDFF10BDC000022010B50446B2
:1023700020684068C0F3402058B12068806800F0B1
:10238000010030B16FF00100216888602046FFF73E
:10239000E3FF10BD01460A68C8681060002070475E
:1023A00000BFFEE700B587B000BF1D48006840F0E1
:1023B00002001B4908600846006800F00200019016
:1023C00000BF00BF00BF0846006840F00200086080
:1023D0000846006800F00200019000BF00BF022024
:1023E00002900120039004900320059002A90D485B
:1023F000FEF712FB01200290039004900320059049
:1024000002A90848FEF708FB012202210548FEF751
:102410000FFC012211460348FEF70AFC07B000BD7D
:10242000303802400004024000BFFEE77047000061
:1024300002480068C0F30220704700000CED00E085
:1024400010B5002807DA0A07140E054A00F00F033A
:102450001B1FD45403E00A07130E024A135410BD85
:1024600018ED00E000E400E010B50023234C2360E9
:1024700000BF00BF00BFBFF34F8F00BF00BF00BF52
:10248000231F1868C0F34E3100BFC0F3C90200BF5C
:1024900043F6E07303EA41134FF0404404EA8274C8
:1024A0002343174C236000BF00BF131EA2F101029B
:1024B000EED10B1EA1F10101E7D100BF00BF00BFAB
:1024C000BFF34F8F00BF00BF00BF0C4B703B1B68BA
:1024D00043F48033094C703C236000BF00BF00BF51
:1024E000BFF34F8F00BF00BF00BF00BF00BF00BFE2
:1024F000BFF36F8F00BF00BF00BF10BD84ED00E0D1
:1025000060EF00E010B500BF00BF00BF00BF00BF1C
:10251000BFF34F8F00BF00BF00BF00BF00BF00BFB1
:10252000BFF36F8F00BF00BF00BF002011490860DC
:102530001148006840F400300F49086000BF00BF38
:1025400000BFBFF34F8F00BF00BF00BF00BF00BF81
:1025500000BFBFF36F8F00BF00BF00BF00BFFFF71A
:1025600083FF04484C30006840F0040001494C31BE
:10257000086010BD50EF00E014ED00E02DE9F041DF
:1025800094B080460D4616461F460024FEF716FD01
:1025900000BF2948006840F080502749086008467D
:1025A000006800F08050019000BF00BF00BF2348CA
:1025B000006840F44040214908600846006800F483
:1025C0004040019000BF00BF00BF1C484068C0F3FE
:1025D00080300028F9D101200790000408900220E3
:1025E0000D9041050E91CDF840800F9511961297F0
:1025F00007A8FEF72BFE04460CB100BFFEE7FEF76E
:10260000CDFB04460CB100BFFEE70F200290022074
:102610000390002004904FF4A05005904FF4805098
:102620000690072102A8FEF701FC04460CB100BF8A
:10263000FEE714B0BDE8F081403802400070004071
:1026400010B5FEF7FBFA044615480068844211D91C
:1026500013480068201AB0F57A7F0BD31148006840
:10266000401C104908600E48006800F57A700C495B
:10267000086013E00A480068C0F1FF302044401CA5
:10268000B0F57A7F0AD307480068401C0549086006
:102690000348006800F57A700149086010BD000029
:1026A000100002200C00022010B5FFF765F810BDE5
:1026B0001448006840F4700012490860124800682D
:1026C00040F001001049086000200F4908310860FF
:1026D0000D4800680D4908400B4908600C48091D69
:1026E0000860081F006820F48020091F086000208F
:1026F00005490C3108604FF00060024980390860DC
:102700007047000088ED00E000380240FFFFF6FE51
:102710001030002470B504460D461A481A49086066
:102720000846456000218160C4600161FFF7C2F97D
:10273000602016490860204604EBD0714910134A06
:10274000516002201146886008220F48FFF7F8F810
:1027500060200F490860204604EBD07149100C4AF4
:1027600051600220114688600C220748FFF7E8F804
:1027700008210548FFF702FA0C210348FFF7FEF98C
:1027800070BD000000040040D4000220540102206B
:102790007001022001490860704700003C040040BD
:1027A0000149086070470000400400407047000085
:1027B00010B50248FEF7E7FF10BD0000140102202B
:1027C00010B5002202682F4B98420ED0B0F1804F16
:1027D0000BD02D4B984208D02C4B984205D02C4B57
:1027E000984202D02B4B984201D1012300E00023F4
:1027F0001BB122F070024B681A43224B984220D042
:10280000B0F1804F1DD0204B98421AD01F4B9842F8
:1028100017D01F4B984214D01E4B984211D01E4B1C
:1028200098420ED01D4B98420BD01D4B984208D0B9
:102830001C4B984205D01C4B984202D01B4B98422F
:1028400001D1012300E000231BB122F44072CB68C8
:102850001A4322F080034C6943EA040202608B6849
:10286000C3620B688362074B984202D0094B9842BF
:1028700001D1012300E000230BB10B6903630123A5
:10288000436110BD0000014000040040000800400A
:10289000000C0040000401400040014000440140A1
:1028A0000048014000180040001C0040002000408B
:1028B00030B50023012404FA01F3046A9C43046246
:1028C000046A02FA01F52C43046230BD30B50024DD
:1028D00000220023056A25F001050562026A4368AB
:1028E0008469144D2C4024F003040D682C4322F01D
:1028F00002028D682A43104DA84202D00F4DA84213
:1029000001D1012500E000256DB122F00802CD685B
:102910002A4322F0040223F4807323F400734D69E8
:102920002B438D692B43436084614D68456302628C
:1029300030BD00008FFFFEFF000001400004014099
:1029400030B5002400220023056A25F01005056239
:10295000026A43688469164D2C4024F440740D6863
:1029600044EA052422F020028D6842EA0512114D46
:10297000A84202D0104DA84201D1012500E0002557
:1029800085B122F08002CD6842EA051222F04002B1
:1029900023F4806323F400634D6943EA85038D6962
:1029A00043EA8503436084614D688563026230BDFC
:1029B000FF8FFFFE000001400004014030B50024FD
:1029C00000220023056A25F480750562026A4368C7
:1029D000C469164D2C4024F003040D682C4322F4E6
:1029E00000728D6842EA0522114DA84202D0114DB5
:1029F000A84201D1012500E0002585B122F4006242
:102A0000CD6842EA052222F4806223F4805323F445
:102A100000534D6943EA05138D6943EA051343608A
:102A2000C4614D68C563026230BD00008FFFFEFFC8
:102A3000000001400004014030B5002200230024C2
:102A4000056A25F480550562036A4468C269104D21
:102A50002A4022F440720D6842EA052223F4005312
:102A60008D6843EA05330B4DA84202D00A4DA842B7
:102A700001D1012500E0002525B124F480444D69F1
:102A800044EA85144460C2614D680564036230BD48
:102A9000FF8FFFFE000001400004014030B500241C
:102AA00000220023056A25F480350562026A436826
:102AB000446D0D4D2C400D682C4322F400320D89DD
:102AC00042EA0542094DA84202D0094DA84204D16C
:102AD00023F480334D6943EA0523436044654D6820
:102AE0008565026230BD00008FFFFEFF00000140DF
:102AF0000004014030B5002400220023056A25F4BB
:102B000080150562026A4368446D0D4D2C400D68C6
:102B100044EA052422F400120D8942EA0552094DC7
:102B2000A84202D0084DA84204D123F480234D6965
:102B300043EA8523436044654D68C565026230BD44
:102B4000FF8FFFFE000001400004014090F82410B8
:102B500001F0010139B10168496821F40031826A4C
:102B600011430268516090F8241001F0020139B15C
:102B70000168496821F48031C26A114302685160DA
:102B800090F8241001F0040139B10168496821F47A
:102B90008021026B11430268516090F8241001F00B
:102BA000080139B10168496821F40041426B1143C1
:102BB0000268516090F8241001F0100139B10168E9
:102BC000896821F48051826B11430268916090F80A
:102BD000241001F0200139B10168896821F4005105
:102BE000C26B11430268916090F8241001F040011B
:102BF00099B10168496821F48011026C114302689F
:102C00005160016CB1F5801F07D10168496821F45A
:102C1000C001426C11430268516090F8241001F029
:102C2000800139B10168496821F40021826C1143A7
:102C300002685160704738B5044600250020E06600
:102C4000FDF7FCFF05462068006800F00800082832
:102C50000CD16FF07E402B4600224FF40011009003
:102C6000204600F07AFA08B1032038BD202084F80D
:102C7000690084F86A0000BF002084F8680000BF83
:102C800000BFF2E770B50546AC6B0020A4F85A000F
:102C9000A4F852002046FEF7A4FF70BD0168096841
:102CA00021F49071026811600168896821F00101C6
:102CB00002689160202180F86A10704710B50446C0
:102CC0002068006820F0400021680860202084F817
:102CD00069002046FFF73EFB002010BD70B504469A
:102CE000B4F85C6094F86A00222833D1A068B0F58B
:102CF000805F0AD1206940B9656D2068406A304024
:102D00002880606D801C606507E02068406AF1B231
:102D10000840626D511C61651070B4F85A00401E85
:102D200080B2A4F85A0098B92068006820F4907026
:102D3000216808602068806820F0010021688860B0
:102D4000202084F86A002046FFF75CF9002070BD5F
:102D50000020FCE72068806940F008002168886155
:102D60000220F4E72DE9F04704460025102600274D
:102D7000A846A9462169A068084361690843E1693A
:102D800040EA010520680068CD49084028432168D1
:102D900008602068406820F44050E16808432168DA
:102DA0004860216AA06940EA01052068806820F433
:102DB000306028432168886000BFC249206888428B
:102DC00015D1C148006800F0030030B1012808D0D7
:102DD000022804D0032808D105E0012606E00226D7
:102DE00004E0042602E0082600E000BFC1E0B74985
:102DF0002068884215D1B448006800F00C0030B15A
:102E0000042808D0082804D00C2808D105E00026A2
:102E100006E0022604E0042602E0082600E000BFE7
:102E2000A7E0AB492068884215D1A748006800F0A8
:102E3000300030B1102808D0202804D0302808D124
:102E400005E0002606E0022604E0042602E008264B
:102E500000E000BF8DE09F492068884215D19A4864
:102E6000006800F0C00030B1402808D0802804D0AD
:102E7000C02808D105E0002606E0022604E004266A
:102E800002E0082600E000BF73E093492068884212
:102E900018D18D48006800F4407048B1B0F5807FCB
:102EA0000AD0B0F5007F05D0B0F5407F08D105E02D
:102EB000002606E0022604E0042602E0082600E0E0
:102EC00000BF56E085492068884218D17E480068D6
:102ED00000F4406048B1B0F5806F0AD0B0F5006FE3
:102EE00005D0B0F5406F08D105E0012606E00226C6
:102EF00004E0042602E0082600E000BF39E078493B
:102F00002068884218D17048006800F4405048B1E9
:102F1000B0F5805F0AD0B0F5005F05D0B0F5405F36
:102F200008D105E0002606E0022604E0042602E0BF
:102F3000082600E000BF1CE06A492068884218D1DA
:102F40006148006800F4404048B1B0F5804F0AD0B5
:102F5000B0F5004F05D0B0F5404F08D105E0002690
:102F600006E0022604E0042602E0082600E000BF96
:102F700000BF00BFE069B0F5004F52D1042E2BD046
:102F800005DC4EB1012E12D0022E3BD11AE0082EE4
:102F90002DD0102E36D136E0FEF7E0F84000616803
:102FA00000EB5100B0FBF1F01FFA80F82EE0FEF7C5
:102FB000E5F84000616800EB5100B0FBF1F01FFA4A
:102FC00080F823E04849606801EB50006168B0FB7D
:102FD000F1F01FFA80F819E0FEF7E0F840006168B0
:102FE00000EB5100B0FBF1F01FFA80F80EE04FF457
:102FF0008031606801EB50006168B0FBF1F01FFAAE
:1030000080F803E000BF4FF0010900BF00BF4FF69A
:10301000F07008EA0007C8F3420007432068C76061
:103020004AE0042E2CD005DC4EB1012E12D0022E27
:103030003DD11AE0082E2ED0102E38D138E0FEF700
:103040008DF8616800EB5100B0FBF1F080B22168AF
:10305000C86030E0FEF792F8616800EB5100B0FB09
:10306000F1F080B22168C86025E02049606801EB7A
:1030700050006168B0FBF1F080B22168C8601AE0CE
:10308000FEF78CF8616800EB5100B0FBF1F080B204
:103090002168C8600FE04FF40041606801EB500008
:1030A0006168B0FBF1F080B22168C86003E000BF46
:1030B0004FF0010900BF00BF4846BDE8F08700009F
:1030C000F369FFEF001001409038024000440040D7
:1030D00000480040004C00400050004000140140F7
:1030E00000780040007C00400048E8010024F40023
:1030F000014691F8690021282DD1B1F8520068B934
:103100000868006820F080000B6818600868006894
:1031100040F040000B681860002070478868B0F5E8
:10312000805F0BD1086948B9CA6C1088C0F30800E9
:103130000B689862C86C801CC86405E0CB6C581C96
:10314000C86418780B689862B1F85200401EA1F864
:1031500052000020E1E70220DFE72DE9F0410446BC
:103160000D4617469846069E21E0701CF8B12EB118
:10317000FDF764FDA0EB0800B04218D3206800689A
:1031800020F4D070216808602068806820F0010079
:1031900021688860202084F8690084F86A0000BFF4
:1031A000002084F8680000BF0320BDE8F08120689B
:1031B000C0692840A84201D1012000E00020B842A7
:1031C000D3D00020F1E7000010B500240C48FEF732
:1031D00013FD00BF01E0641C00BF0948FEF702FDBB
:1031E0002028F8D100BF002401E0641C00BF0122A8
:1031F00004490348FEF7A8FE0028F6D100BF10BD21
:103200008C0D02202200022010B500240C48FEF78D
:10321000F3FC00BF01E0641C00BF0948FEF7E2FCBC
:103220002028F8D100BF002401E0641C00BF012267
:1032300004490348FEF788FE0028F6D100BF10BD00
:10324000FC0D02202300022010B500240C48FEF7DC
:10325000D3FC00BF01E0641C00BF0948FEF7C2FCBC
:103260002028F8D100BF002401E0641C00BF012227
:1032700004490348FEF768FE0028F6D100BF10BDE0
:103280006C0E02202400022010B504460C480D49A3
:1032900008600846446000218160C160016181616D
:1032A0000C2141610021C161FEF756FD08B100BF4C
:1032B000FEE7012204490348FEF746FE10BD000068
:1032C000001001408C0D02202200022010B504469F
:1032D0000D480E4908600846446000218160C160C5
:1032E000016181610C21416100210948C1610748E8
:1032F000FEF732FD08B100BFFEE701220549034891
:10330000FEF722FE10BD000000440040FC0D02202C
:103310008C0D02202300022010B504460C480D49F4
:1033200008600846446000218160C16001618161DC
:103330000C2141610021C161FEF70EFD08B100BF03
:10334000FEE7012204490348FEF7FEFD10BD000020
:10335000004800406C0E02202400022000BFFEE75F
:103360007047000010B50248FFF700F810BD0000DC
:10337000C000022000BF704700BF054A126802F07B
:103380004002002AF9D0C2B2014B0C331A607047D8
:103390001C4400400125002412E0502001F03CF9BB
:1033A00015B1601C84B201E0601E84B2282C01DBE0
:1033B000002501E004B901250249085DFFF7F0F995
:1033C000EBE700009A5800080125002412E03220A3
:1033D00001F022F915B1601C84B201E0601E84B2D4
:1033E000282C01DB002501E004B901250249085D14
:1033F000FFF7D0F9EBE700009A5800081CB5FFF77B
:1034000081F8FDF72DFC0923022219214FF4D87011
:10341000FFF7B4F8D820FDF787FA4FF41650FFF7FE
:1034200033FF4FF41650FFF751FF4FF41650FFF7DC
:1034300073FFFEF7B7FF6B2140F2F310FFF76AF955
:103440000648012100238022CDE9001004A107488D
:1034500001F00CFF01F032FA00BFFEE7A0000220ED
:1034600073746172745F7461736B00007D41000856
:103470000446254607E0294603A0FDF70FF84FF460
:103480007A7001F0C9F8F6E7257300000446254676
:1034900007E0294603A0FDF701F84FF47A7001F028
:1034A000BBF8F6E7257300002DE9F04105460E460E
:1034B0001C4807681C480068001D00F0C3FE50B996
:1034C0001948006890F82C100120884017490968B5
:1034D000814316480160681C38B936B1124801684A
:1034E000091D134800F0ECFE1AE07C190E48006834
:1034F0004460BC4207D20C480168091D0D480068B1
:1035000000F0C4FE0CE008480168091D0A48006884
:1035100000F0BCFE09480068844201D207480460FC
:10352000BDE8F081400002202C000220440002206F
:10353000EC11022034000220300002205C00022046
:1035400010B5044600F0C8FE24480068401C23491A
:1035500008602348006840B92148046008460068B4
:1035600001280DD100F0EAF90AE01E48006838B9D8
:103570001B480068C06AE16A884201D818480460A4
:1035800019480068401C18490860084600686064D3
:1035900094F82C1001208840144909680843134905
:1035A0000860E16A01EB8101114A02EB8100211DF3
:1035B00000F086FE00F0E0FE0A48006868B10848A6
:1035C0000068C06AE16A884207D24FF0805009491A
:1035D0000860BFF34F8FBFF36F8F10BD3C00022018
:1035E0002C00022048000220580002204400022043
:1035F0001C0F022004ED00E010B500F06DFE104835
:103600000068D0B90F4800F031FE0F4800F02EFEE0
:103610000C480E4908600C480D4908600022102132
:10362000052001F0E3FA064908600846006820B169
:1036300008A10348006800F0B3FF00F09DFE10BD34
:1036400070000220001202201412022068000220E2
:103650006C000220546D72510000000010B516E09D
:1036600000F03AFE0C48C068C468201D00F0EAFD76
:103670000A480068401E0949086009480068401E61
:103680000749086000F078FE204600F05EF8044824
:1036900000680028E4D110BDD81102203C000220AF
:1036A0003800022070B504460D46206C70B1216CC4
:1036B000E0680844E0606168E068884201D32068FF
:1036C000E0602846226CE168FCF78EFF70BD2DE9B2
:1036D000F04104460F4615464FF00008A66B206CDB
:1036E00040B9206860BB606801F0C2FE80460020DF
:1036F000606025E07DB93946226CA068FCF774FF54
:10370000216CA0680844A060D4E90110884217D356
:103710002068A06014E03946226CE068FCF764FF82
:10372000216CE068401AE0602168E068884203D2BA
:10373000216C6068401AE060022D01D106B1761E4E
:10374000701CA0634046BDE8F08110B50446206BB4
:1037500000F054FE204600F051FE10BD0146084A1C
:10376000126812680AB9012200E000220A600A68A1
:1037700022B9034A1268D268106800E0002070473E
:103780006800022030B54FF43843174800F00704B2
:103790002CB1C01D20F00700134C041B1B1B02465C
:1037A000124C22600024114D6C60D018083820F0B3
:1037B00007000F4C206000240D4D2D686C600C4DEF
:1037C0002D682C601146441A4C60094C24680C602A
:1037D000084D4C682C60084D4C682C604FF000443C
:1037E000064D2C6030BD0000281202208800022007
:1037F0009000022098000220940002209C000220E9
:1038000000BFFFF72BFF064800680128F9D94FF0E9
:10381000805004490860BFF34F8FBFF36F8FF0E70C
:103820001C0F022004ED00E02DE9F04106460D4694
:1038300017469846069C0DB9246000E02760E663B1
:1038400025640121204601F015FA84F850800020FB
:10385000A064BDE8F08100002DE9F05F82460F46CC
:1038600090469B460A9E0C9C4FEA8801A522206B3D
:10387000FCF731FFA8F10100216B01EB800929F071
:10388000070909F0070008B9012000E0002028B965
:1038900040F263321BA125A0FCF700FE002507E0E3
:1038A000795D04F134004155785D00B902E06D1C8A
:1038B000102DF5D300BF002143200155202E00D349
:1038C0001F26E662E66400202065201D00F0DBFC78
:1038D00004F1180000F0D7FC2461C6F12000A061BB
:1038E00064620020606584F858005A465146484694
:1038F00000F02EFC20600B9808B10B980460BDE826
:10390000F09F00002E2E5C4C6962726172696573D3
:103910005C4672656552544F535C536F75726365B4
:103920005C7461736B732E63000000004572726FEC
:10393000723A25732C25640D0A00000010B500248E
:1039400007E004EB84010F4A02EB810000F08EFCDB
:10395000641C202CF5D30C4800F088FC0B4800F0C8
:1039600085FC0B4800F082FC0A4800F07FFC0A4806
:1039700000F07CFC044809490860044808490860D4
:1039800010BD00001C0F02209C110220B01102206B
:10399000C4110220D8110220EC11022030000220B4
:1039A0003400022010B50146164800E000680368A4
:1039B0008B42FBD30246436813448B4204D14368D5
:1039C0004C682344436001460A464B68134404682C
:1039D000A34211D10C4C03682468A34208D04B6861
:1039E0000468646823444B6003681B680B6005E04F
:1039F000054B1B680B6001E003680B60884200D038
:103A0000016010BD88000220900002202DE9F041E5
:103A100004460D4616461F464FF0000865602461B7
:103A2000B5420CD8F01BA169884202D34FF00108BF
:103A300011E0211D0948006800F028FC0BE0BE429F
:103A400004D2BD4202D34FF0010804E0211D044816
:103A5000006800F01BFC4046BDE8F0816C000220CD
:103A60006800022070B5054600F036FCA86B08B966
:103A7000012400E0002400F07FFC204670BD70B5FA
:103A8000054600F029FCA86BE96B884201D10124AE
:103A900000E0002400F070FC204670BD2DE9F341E9
:103AA0000D460098846C00272CB940F625321AA1E7
:103AB00023A0FCF7F3FCA06BE16B884201D201204C
:103AC00000E0002028B940F6263213A11CA0FCF724
:103AD000E5FCA06BE16B88421BD294F945602A4655
:103AE00069462046FFF7F3FD0746701C60B9606A1F
:103AF00008B9012000E0002050B904F1240001F0D1
:103B00002DFD28B1012703E0701C40B284F8450068
:103B100000BF3846BDE8FC812E2E5C4C69627261A4
:103B2000726965735C4672656552544F535C536F9E
:103B3000757263655C71756575652E6300000000C4
:103B40004572726F723A25732C25640D0A000000CD
:103B5000F8B505460F4613480068C068C468201DC4
:103B600000F070FBE069012818D1A06941192B46CB
:103B70003A462046FFF74AFF80B1002003462A4616
:103B800001460090204601F029FE06462EB94FF46A
:103B9000F27205A10EA0FCF781FC00BF2046616A0D
:103BA0008847F8BD680002202E2E5C4C6962726165
:103BB000726965735C4672656552544F535C536F0E
:103BC000757263655C74696D6572732E63000000C5
:103BD0004572726F723A25732C25640D0A0000003D
:103BE000F0B587B070E0039800280CDA04AE2EB967
:103BF00040F2C32239A143A0FCF750FCD6E90020D3
:103C0000B168904700BF039800285DDB059C6069A0
:103C100008B9012000E0002010B9201D00F012FBBF
:103C200002A800F0CDF8054603980A284AD2DFE83A
:103C300000F00905072C2E4506082D2F00BF00BFF8
:103C400000BF00BF0498A269811803462A46204697
:103C5000FFF7DCFEC0B12046616A8847E0690128B1
:103C600012D1002000900498A1694218002319463F
:103C7000204601F0B3FD07462FB940F2FD2217A1FF
:103C800020A0FCF70BFC00BF1DE000BF1BE000BF45
:103C90000498A061A06908B1012000E0002028B9C3
:103CA0004FF445720DA117A0FCF7F8FBA06941196C
:103CB0002B462A462046FFF7A9FE04E0204600F0E6
:103CC0009DFB00E000BF00BF002203A9114800686F
:103CD00001F0B2F9002886D107B0F0BD2E2E5C4C61
:103CE00069627261726965735C4672656552544FB0
:103CF000535C536F757263655C74696D6572732E86
:103D0000630000004572726F723A25732C25640DB2
:103D10000A00000070000220F8B505460C4600F0CD
:103D20002FFE684600F04CF80646009820BB44B9C8
:103D3000B54206D801F076FC31462846FFF708FF69
:103D40001CE03CB10E480068006808B9012000E0A2
:103D500000200446A91B22460A48006800F036FCF1
:103D600001F060FC50B94FF0805007490860BFF384
:103D70004F8FBFF36F8F01E001F054FCF8BD0000DE
:103D80006C0002207000022004ED00E00A4909687E
:103D9000096809B9012100E0002121B14FF0FF318C
:103DA000064A116006E004490968C968C868034A00
:103DB0004168116070470000300002205C00022062
:103DC00070B5044601F092FA05460748006885423E
:103DD00004D200F00BF80120206001E000202060F8
:103DE00001480560284670BD780002202DE9F8439F
:103DF0002DE021480068C06805681F480068C06859
:103E0000C468201D00F01EFA2046616A8847E069F8
:103E100001281CD1A0694619AE4207D96660246109
:103E2000211D1548006800F031FA10E0002003461B
:103E30002A4601460090204601F0D0FC07462FB9E3
:103E400040F26E320DA117A0FCF728FB00BF0A4814
:103E50000068006808B9012000E000200028C8D0F0
:103E60000548D0F8008013480068034908601148ED
:103E7000C0F80080BDE8F883680002202E2E5C4C5C
:103E800069627261726965735C4672656552544F0E
:103E9000535C536F757263655C74696D6572732EE4
:103EA000630000004572726F723A25732C25640D11
:103EB0000A0000006C0002200C480068401C08B991
:103EC000012000E0002020B9DF2209A118A0FCF7A2
:103ED000E5FA00BF502072B680F31188BFF34F8F10
:103EE000BFF36F8F62B600BF00BFFEE77C00022009
:103EF0002E2E5C4C69627261726965735C467265F4
:103F00006552544F535C536F757263655C706F728A
:103F10007461626C655C525644535C41524D5F4320
:103F20004D375C723070315C706F72742E630000BC
:103F30004572726F723A25732C25640D0A000000D9
:103F400008B500BF6846FFF709FC04462046009903
:103F5000FFF7E2FEFFF744FEF4E770B5044600F019
:103F6000BBF994F945501AE0A06C38B10021204605
:103F7000FFF794FD88B100F02FFC0EE0606A08B9ED
:103F8000012000E0002038B904F1240001F0E6FA35
:103F900018B100F021FC00E003E0681E45B2002DDE
:103FA000E2DC00BFFF2084F8450000F0E5F900F0F6
:103FB00093F994F9445010E0206908B9012000E019
:103FC000002048B904F1100001F0C8FA08B100F06F
:103FD00003FC681E45B200E001E0002DECDC00BFF0
:103FE000FF2084F8440000F0C7F970BD2DE9F041CE
:103FF00004464FF0000800F0C3FC3E48006808B9D2
:10400000FFF7C0FB3C480068204000285FD1A4B106
:10401000083404F0070080B104F00700C0F1080084
:10402000044404F0070008B9012000E0002020B992
:10403000952232A13FA0FCF731FA002C47D041482D
:104040000068844243D8404E3046056801E02E4661
:104050002D686868A04202D228680028F7D1254858
:104060000068854233D0306800F108082868306065
:104070006868001B102813D92F1907F0070008B92A
:10408000012000E0002020B9C2221CA129A0FCF7D9
:1040900005FA6868001B78606C603846FFF782FCA0
:1040A000284968680968081A2649086008460068AF
:1040B00026490968884203D22248006823490860DB
:1040C0000D4968680968084368600020286001F0AD
:1040D000A9FA08F0070008B9012000E0002028B97B
:1040E0004FF4817205A113A0FCF7D8F94046BDE852
:1040F000F0810000900002209C0002202E2E5C4CDB
:1041000069627261726965735C4672656552544F8B
:10411000535C536F757263655C706F727461626C2F
:10412000655C4D656D4D616E675C686561705F349F
:104130002E6300004572726F723A25732C25640D50
:104140000A0000009400022088000220980002204B
:10415000001F4FF080730360001F21F00103036014
:10416000001F054B036014380260001F6FF002034C
:104170000360203870470000B93E00081CB50446B3
:1041800000F0AAF81848022100233222CDE90010DD
:1041900016A1194801F06AF81848032100233222B9
:1041A000CDE9001016A1194801F060F81848042163
:1041B000CDE900101748802217A10368194801F0C3
:1041C00055F819480521CDE900101848802218A19A
:1041D00003681A4801F04AF81948006800F060FACC
:1041E00000F0CAF81CBD0000A40002206C65643019
:1041F0005F7461736B00000095330008A800022013
:104200006C6564315F7461736B000000C933000832
:10421000AC000220B40002207072696E74315F74C9
:1042200061736B0071340008B0000220B8000220F6
:104230007072696E74325F7461736B008D34000844
:10424000A000022001460A69D1E901309860D1E955
:10425000010358605068884201D18868506000208E
:1042600008611068401E10601068704700F1080176
:1042700041604FF0FF31816000F10801C1600161D0
:1042800000210160704700210161704710B50246AE
:104290000B685C1C0CB9106907E002F1080000E033
:1042A0004068446824689C42FAD944684C604C6871
:1042B000A160886041600A611468641C146010BDCC
:1042C00042684A6093688B609368596091600861A6
:1042D00003685B1C0360704710B500BF502072B6C6
:1042E00080F31188BFF34F8FBFF36F8F62B600BFAB
:1042F0000B480068401C0A4908600846006801280D
:104300000DD108480068C0B208B9012000E00020C3
:1043100028B940F2971204A113A0FCF7BFF810BD12
:104320007C00022004ED00E02E2E5C4C696272617C
:10433000726965735C4672656552544F535C536F86
:10434000757263655C706F727461626C655C525605
:1043500044535C41524D5F434D375C723070315C69
:10436000706F72742E6300004572726F723A25731B
:104370002C25640D0A00000010B50B48006828B910
:104380004FF4CF7209A119A0FCF788F8064800681D
:10439000401E054908600846006820B9002080F3E7
:1043A000118800BF00BF10BD7C0002202E2E5C4C87
:1043B00069627261726965735C4672656552544FD9
:1043C000535C536F757263655C706F727461626C7D
:1043D000655C525644535C41524D5F434D375C72AD
:1043E0003070315C706F72742E6300004572726FB2
:1043F000723A25732C25640D0A00000070B506463C
:104400003546002E35D0083D2C461A4960680968AB
:10441000084008B1012000E0002028B94FF48B7259
:1044200015A123A0FCF73AF8206808B9012000E0A4
:10443000002028B940F217120FA11DA0FCF72EF89A
:104440000C4960680968084098B1206888B9094932
:10445000606809688843606000F092FA18496068F3
:1044600009680844164908602046FFF79BFA01F0E6
:10447000D9F870BD9C0002202E2E5C4C69627261DE
:10448000726965735C4672656552544F535C536F35
:10449000757263655C706F727461626C655C4D65AA
:1044A0006D4D616E675C686561705F342E630000FE
:1044B0004572726F723A25732C25640D0A00000054
:1044C0009400022000204FF0E02108618861064836
:1044D00000684FF47A71B0FBF1F0401E4FF0E0211C
:1044E0004861072008617047BC00022070B5FBF7E7
:1044F00039FF0546102D11D305F1E02090F8F04367
:1045000010480078844201DB012000E0002028B937
:1045100040F2F1220CA11CA0FBF7C0FF1E4800686E
:1045200000F4E0601D490968884201D8012000E0DC
:10453000002028B940F2013203A113A0FBF7AEFF1F
:1045400070BD0000800002202E2E5C4C69627261FA
:10455000726965735C4672656552544F535C536F64
:10456000757263655C706F727461626C655C5256E3
:1045700044535C41524D5F434D375C723070315C47
:10458000706F72742E6300004572726F723A2573F9
:104590002C25640D0A0000000CED00E084000220D0
:1045A000024600200BE0084B53F8303033B9064B7D
:1045B00043F8301003EBC0035A6002E0401C0828A7
:1045C000F1D300BF70470000DC0E02202DE9F0415E
:1045D00005460E4617462C46FFF77EFE94F944002A
:1045E000401C10B9002084F8440094F94500401C98
:1045F00010B9002084F84500FFF7BEFEA06B28B973
:104600003A46314604F1240000F020F92046FFF735
:10461000A4FCBDE8F081000070B504460025ACB1F3
:104620000F48006808B9012000E0002028B940F2D6
:104630000F520CA115A0FBF731FF00F0A1F90021EA
:104640002046FEF731FF00F0EDFF05463DB94FF083
:10465000805012490860BFF34F8FBFF36F8F70BD5A
:10466000640002202E2E5C4C69627261726965736F
:104670005C4672656552544F535C536F7572636547
:104680005C7461736B732E63000000004572726F7F
:10469000723A25732C25640D0A00000004ED00E039
:1046A00070B50546FFF718FE15B92D48006800E003
:1046B00028460446201DFFF7C5FD78B9E06A00EBE7
:1046C0008000284951F8200040B994F82C100120AE
:1046D000884025490968814323480160A06A18B1D0
:1046E00004F11800FFF7AEFD20480068401C1F4988
:1046F00008601B480068844209D1211D1C48FFF74F
:10470000DFFD1C480068401C1A49086009E01A488F
:104710000068401E184908602046FFF716F8FFF7AA
:1047200035FBFFF729FE15480068C0B10C4800684A
:10473000844214D11248006808B9012000E000202A
:1047400028B940F2A5420FA118A0FBF7A7FE4FF031
:1047500080501A490860BFF34F8FBFF36F8F70BD51
:104760002C0002201C0F02204400022058000220CE
:10477000D8110220380002203C000220480002200C
:10478000640002202E2E5C4C69627261726965734E
:104790005C4672656552544F535C536F7572636526
:1047A0005C7461736B732E63000000004572726F5E
:1047B000723A25732C25640D0A00000004ED00E018
:1047C00003490968016003490968416070470000B6
:1047D0005400022040000220012001490860704777
:1047E0005000022070B504460D462CB94FF43662D5
:1047F00007A111A0FBF752FE1348016818312046AB
:10480000FFF744FD01212846FEF74EFE70BD000073
:104810002E2E5C4C69627261726965735C467265CA
:104820006552544F535C536F757263655C7461736A
:104830006B732E63000000004572726F723A25732D
:104840002C25640D0A0000002C00022070B50546DE
:104850000E4614462DB940F68B3209A112A0FBF783
:104860001DFE1548016818312846FFF729FD0CB1D7
:104870004FF0FF3621463046FEF716FE70BD0000B1
:104880002E2E5C4C69627261726965735C4672655A
:104890006552544F535C536F757263655C746173FA
:1048A0006B732E63000000004572726F723A2573BD
:1048B0002C25640D0A0000002C0002201CB51B48AA
:1048C00000210B468222CDE9001019A11A4800F000
:1048D000CDFC0446012C02D100F03EFF0446012C21
:1048E00017D100BF502072B680F31188BFF34F8FED
:1048F000BFF36F8F62B600BF4FF0FF300F49086003
:1049000001200F49086000200E49086000F09EF861
:104910000BE0601C08B1012000E0002028B940F243
:10492000DC7209A112A0FBF7B9FD1CBD60000220DA
:1049300049444C4500000000013800085C0002209A
:1049400048000220400002202E2E5C4C69627261F9
:10495000726965735C4672656552544F535C536F60
:10496000757263655C7461736B732E630000000085
:104970004572726F723A25732C25640D0A0000008F
:1049800002480068401C014908607047640002202A
:1049900010B51B48006818B101201A4908602DE0C5
:1049A00000201849086018480068B0FA80F0C0F18B
:1049B0001F0404EB8400154951F8200008B10120C0
:1049C00000E0002028B94FF4356211A11AA0FBF7CE
:1049D00065FD04EB84010D4A02EB810041684968E2
:1049E000416000F1080142688A4202D14168496889
:1049F00041604168C968144A116000BF10BD0000E1
:104A00006400022050000220440002201C0F0220FB
:104A10002E2E5C4C69627261726965735C467265C8
:104A20006552544F535C536F757263655C74617368
:104A30006B732E63000000004572726F723A25732B
:104A40002C25640D0A0000002C0002201CB53F4CF0
:104A5000204600780190FF20214608700846007823
:104A600000909DF8000000F0F0009DF800108842D2
:104A700001D1012000E0002028B940F23F1234A10A
:104A800043A0FBF70BFD9DF8000000F050004449E7
:104A9000087007204349086009E042480068401E4A
:104AA000404908609DF800004006000E00909DF807
:104AB000000000F080008028EFD03A480068C0F184
:104AC0000700042801D1012000E0002028B94FF49C
:104AD000A9721FA12EA0FBF7E1FC32480068C0F1CB
:104AE0000700042801D1012000E0002028B940F28D
:104AF0005B1217A126A0FBF7D1FC2A480068000230
:104B0000284908600846008800F4E06008600F4902
:104B1000019808702448006840F470002249086039
:104B20000846006840F070400860FFF7CBFC0020AA
:104B30001E490860FBF7DCFB1D48006840F0404060
:104B40001B490860FBF7C0FB00201CBD00E400E02F
:104B50002E2E5C4C69627261726965735C46726587
:104B60006552544F535C536F757263655C706F721E
:104B70007461626C655C525644535C41524D5F43B4
:104B80004D375C723070315C706F72742E63000050
:104B90004572726F723A25732C25640D0A0000006D
:104BA000800002208400022020ED00E07C00022032
:104BB00034EF00E010B500BF502072B680F31188CA
:104BC000BFF34F8FBFF36F8F62B600BF00F094FB4F
:104BD00018B14FF080500449086000BF002080F3F6
:104BE000118800BF10BD000004ED00E02DE9F8437E
:104BF00005460E4690460DB1012000E0002028B980
:104C00004FF4B6720DA117A0FBF748FC0EB90027B0
:104C100001E005FB06F707F15400FFF7E7F904464A
:104C200044B104F1540943464A46314628460094AB
:104C3000FEF7FAFD2046BDE8F88300002E2E5C4CFE
:104C400069627261726965735C4672656552544F40
:104C5000535C536F757263655C71756575652E6322
:104C6000000000004572726F723A25732C25640DA6
:104C70000A00000070B505460E462C4624B9FB22FA
:104C80001EA128A0FBF70AFCFFF726FBD4E90F12B0
:104C9000206801FB020060600020A0632068A06023
:104CA000E06B401E226C216800FB0210E060FF20D8
:104CB00084F8440084F845009EB9206908B90120B1
:104CC00000E00020A8B904F1100000F047FC80B11A
:104CD0004FF0805017490860BFF34F8FBFF36F8FBD
:104CE00007E004F11000FFF7C1FA04F12400FFF718
:104CF000BDFAFFF741FB012070BD00002E2E5C4C79
:104D000069627261726965735C4672656552544F7F
:104D1000535C536F757263655C71756575652E6361
:104D2000000000004572726F723A25732C25640DE5
:104D30000A00000004ED00E02DE9FF4383B00646C1
:104D400088461D464FF0000934462CB940F2DB225C
:104D500060A16AA0FBF7A2FBB8F1000F01D1206CA3
:104D600008B9012000E0002028B94FF4377259A19A
:104D700062A0FBF793FB022D02D1E06B012801D169
:104D8000012000E0002028B940F2DD2251A15BA003
:104D9000FBF784FB00F09AFA08B9059808B90120DE
:104DA00000E0002028B94FF438724AA153A0FBF765
:104DB00075FB00BFFFF790FAA06BE16B884201D34F
:104DC000022D38D12A4641462046FEF780FC074690
:104DD000A06C68B129462046FEF760FE28B34FF06C
:104DE00080504A490860BFF34F8FBFF36F8F1CE0BC
:104DF000606A08B9012000E0002068B904F12400CD
:104E000000F0ACFB88B14FF0805040490860BFF320
:104E10004F8FBFF36F8F08E03FB14FF080503B4999
:104E20000860BFF34F8FBFF36F8FFFF7A5FA012024
:104E300007B0BDE8F083059818B9FFF79DFA002088
:104E4000F6E7B9F1000F04D101A8FFF7B9FC4FF064
:104E50000109FFF791FAFFF793FDFFF73DFA94F987
:104E60004400401C10B9002084F8440094F9450027
:104E7000401C10B9002084F84500FFF77DFA05A911
:104E800001A800F09BF9F0B92046FEF7F8FDA0B1AB
:104E900004F110000599FFF7A5FC2046FFF75DF827
:104EA00000F0C0FB002885D14FF080501749086002
:104EB000BFF34F8FBFF36F8F7CE72046FFF74DF8AE
:104EC00000F0B0FB76E72046FFF747F800F0AAFBBA
:104ED0000020ADE72E2E5C4C6962726172696573C9
:104EE0005C4672656552544F535C536F75726365CF
:104EF0005C71756575652E63000000004572726F08
:104F0000723A25732C25640D0A00000004ED00E0C0
:104F10002DE9F05F80468A4615461E4644462CB968
:104F200040F2A13236A140A0FBF7B8FABAF1000F67
:104F300001D1206C08B9012000E0002028B940F21E
:104F4000A2322FA138A0FBF7A9FA022E02D1E06B02
:104F5000012801D1012000E0002028B940F2A3324D
:104F600027A131A0FBF79AFAFFF7C0FA00BF502142
:104F7000EFF3118072B681F31188BFF34F8FBFF347
:104F80006F8F62B600BF0746A06BE16B884201D30A
:104F9000022E2BD194F945B0324651462046FEF7F9
:104FA00096FB0BF10100C8B9A06C40B13146204618
:104FB000FEF774FDB8B1B5B10120286013E0606A56
:104FC00008B9012000E0002068B904F1240000F0D5
:104FD000C5FA40B13DB10120286004E00BF10100A9
:104FE00040B284F845004FF0010901E04FF000099C
:104FF00000BF87F3118800BF4846BDE8F09F00005E
:105000002E2E5C4C69627261726965735C467265D2
:105010006552544F535C536F757263655C7175656F
:1050200075652E63000000004572726F723A257339
:105030002C25640D0A0000002DE9F74183B00546D8
:105040000E464FF000082C462CB940F2DE424CA12F
:1050500055A0FBF723FA0EB9206C08B9012000E037
:10506000002028B940F2E24245A14FA0FBF716FA12
:1050700000F02CF908B9059808B9012000E00020DB
:1050800028B940F2E7423EA147A0FBF707FA00BF6C
:10509000FFF722F9A76BF7B131462046FEF702FB76
:1050A000781EA063206908B9012000E0002060B9E3
:1050B00004F1100000F052FA38B14FF080503E4930
:1050C0000860BFF34F8FBFF36F8FFFF755F90120D3
:1050D00006B0BDE8F081059818B9FFF74DF900203A
:1050E000F6E7B8F1000F04D101A8FFF769FB4FF014
:1050F0000108FFF741F9FFF743FCFFF7EDF894F9DA
:105100004400401C10B9002084F8440094F9450084
:10511000401C10B9002084F84500FFF72DF905A9BF
:1051200001A800F04BF8F0B92046FEF79BFCA0B1B7
:1051300004F124000599FFF755FB2046FEF70DFF0B
:1051400000F070FA0028A3D14FF080501A4908608F
:10515000BFF34F8FBFF36F8F9AE72046FEF7FDFE38
:1051600000F060FA94E72046FEF7F7FE00F05AFAE6
:105170002046FEF777FC00288AD00020A8E7000030
:105180002E2E5C4C69627261726965735C46726551
:105190006552544F535C536F757263655C717565EE
:1051A00075652E63000000004572726F723A2573B8
:1051B0002C25640D0A00000004ED00E070B50546E2
:1051C0000C462DB940F6264218A122A0FBF766F93D
:1051D0002CB940F6274215A11EA0FBF75FF9FFF797
:1051E0007BF8204802686868131A2068401C08B9D8
:1051F000002617E01C4928680968884204D06868BE
:10520000904201D801260DE02068984207D9206815
:10521000C01A20602846FFF7D3FA002602E00020DB
:1052200020600126FFF7A8F8304670BD2E2E5C4C9A
:1052300069627261726965735C4672656552544F4A
:10524000535C536F757263655C7461736B732E632B
:10525000000000004572726F723A25732C25640DB0
:105260000A00000040000220540002202DE9FF4FF8
:1052700085B0804689461746DDE912ABB800FEF7D7
:10528000B5FE064656B15C20FEF7B0FE04460CB1F2
:10529000266304E03046FFF7B1F800E000247CB15B
:1052A0000020CDE900ABCDE902403A4649464046F0
:1052B000089BFEF7D1FA2046FEF742F9012501E0EE
:1052C0004FF0FF35284609B0BDE8F08F0549096861
:1052D00009B9012005E00449096809B9022000E084
:1052E000002070474800022064000220014908683D
:1052F00070470000400002202DE9F0414FF0000807
:1053000042480068002873D141480068451C404865
:105310000560002D1DD13F480068006808B90120D4
:1053200000E0002028B940F633223BA144A0FBF75F
:10533000B5F8384807684648006836490860444868
:10534000076044480068401C42490860FEF71EFDA3
:1053500000BF4148006885423CD300BF2D4800682B
:10536000006808B9012000E0002020B14FF0FF30B4
:10537000394908602DE027480068C068C46866683D
:10538000B54202D23448066023E0201DFEF75AFFE2
:10539000A06A18B104F11800FEF754FF94F82C101D
:1053A000012088402D49096808432C490860E16ABA
:1053B00001EB81012A4A02EB8100211DFEF780FFEB
:1053C0002849E06A0968C96A8842C7D34FF00108D2
:1053D000C4E700BF23480068C06A00EB8000204992
:1053E00051F82000012801D94FF0010805E0FFE73E
:1053F0001D480068401C1C4908601C48006808B132
:105400004FF001084046BDE8F08100006400022032
:1054100040000220300002202E2E5C4C6962726136
:10542000726965735C4672656552544F535C536F85
:10543000757263655C7461736B732E6300000000AA
:105440004572726F723A25732C25640D0A000000B4
:1054500034000220540002205C000220440002209C
:105460001C0F02202C0002204C00022050000220C1
:1054700070B505462C460026002D4BD02648006806
:10548000844201D1012000E0002028B940F63B729F
:1054900022A12CA0FBF702F8206D28B940F63C723F
:1054A0001EA128A0FAF7FAFF206D401E2065E16CCE
:1054B000E06A88422ED0206D60BB201DFEF7C2FE40
:1054C00078B9E06A00EB8000224951F8200040B929
:1054D00094F82C10012088401F49096881431E4818
:1054E0000160E06CE062E06AC0F12000A06194F825
:1054F0002C100120884018490968084316490860A3
:10550000E16A01EB8101134A02EB8100211DFEF7E4
:10551000D7FE0126304670BD2C0002202E2E5C4C9A
:1055200069627261726965735C4672656552544F57
:10553000535C536F757263655C7461736B732E6338
:10554000000000004572726F723A25732C25640DBD
:105550000A0000001C0F02204400022070B506461D
:10556000F068C4682CB940F6BB321AA123A0FAF740
:1055700095FF04F11800FEF765FE24480068A8B9FD
:10558000201DFEF75FFE94F82C1001208840204972
:10559000096808431E490860E16A01EB81011D4A60
:1055A00002EB8100211DFEF78BFE04E004F11801DF
:1055B0001948FEF785FE1949E06A0968C96A8842F8
:1055C00004D9012501201649086000E0002528467D
:1055D00070BD00002E2E5C4C696272617269657349
:1055E0005C4672656552544F535C536F75726365C8
:1055F0005C7461736B732E63000000004572726F00
:10560000723A25732C25640D0A0000006400022004
:10561000440002201C0F0220C41102202C00022092
:105620005000022070B5002400263448006828B9D4
:105630004FF4046232A13CA0FAF730FFFEF74CFEB3
:105640002E480068401E2D49086008460068002862
:105650004FD13948006800284BD024E03748C06853
:10566000C46804F11800FEF7EDFD201DFEF7EAFD09
:1056700094F82C10012088403149096808433049CA
:105680000860E16A01EB81012E4A02EB8100211DD5
:10569000FEF716FE2C49E06A0968C96A884202D3FF
:1056A00001202A4908602548006808B9012000E067
:1056B00000200028D2D00CB1FEF768FB2448056812
:1056C00065B100BFFFF718FE10B101201F49086047
:1056D0006D1E002DF6D100201D4908601B48006892
:1056E00038B1012630071B490860BFF34F8FBFF365
:1056F0006F8FFEF741FE304670BD0000640002204F
:105700002E2E5C4C69627261726965735C467265CB
:105710006552544F535C536F757263655C7461736B
:105720006B732E63000000004572726F723A25732E
:105730002C25640D0A0000003C000220C411022048
:10574000440002201C0F02202C00022050000220E6
:105750004C00022004ED00E01CB50024FDF74CFFD6
:105760000B48006858B10B481F2100234FF4827288
:10577000CDE9001008A10A48FFF778FD04462CB9CE
:1057800040F20F1207A111A0FAF788FE20461CBDB7
:105790007000022074000220546D72205376630062
:1057A000413F00082E2E5C4C69627261726965731C
:1057B0005C4672656552544F535C536F75726365F6
:1057C0005C74696D6572732E630000004572726FC0
:1057D000723A25732C25640D0A0000002DE9FF475D
:1057E00004460D4616461F46DDF830804FF000098E
:1057F0002CB94FF4C17217A120A0FAF74FFE23482D
:10580000006810B3009501960294062D15DAFFF793
:105810005DFD022808D10023424669461B48006806
:10582000FFF78AFA814610E000231A4669461748B6
:105830000068FFF781FA814607E000233A4669468F
:1058400012480068FFF764FB8146484604B0BDE893
:10585000F08700002E2E5C4C69627261726965737C
:105860005C4672656552544F535C536F7572636545
:105870005C74696D6572732E630000004572726F0F
:10588000723A25732C25640D0A0000007000022076
:105890004FF04070E1EE100A70470101020203046C
:1058A00006080A0E1319212C3B506B8FBFFFFFBF58
:1058B0008F6B503B2C2119130E0A080604030202B9
:1058C00001010000000000000000010203040607BF
:1058D0000809000000000102030400005072696E14
:1058E00074205461736B20312069732072756E6E61
:1058F000696E670D0A0000005072696E7420546171
:10590000736B20322069732072756E6E696E670D3D
:105910000A0000003459000800000220C000000006
:1059200034020008F4590008C0000220C8CF00006B
:1059300050020008000000001000000001000000FC
:105940000000000000000000000000000000000057
:105950000000000000000000000000000000000047
:105960000000000000000000000000000000000037
:105970000000000000000000000000000000000027
:105980000000000000000000000000000000000017
:105990000000000000000000000000000000000007
:1059A00000000000000000000000000000000000F7
:1059B000AAAAAAAA0000000000000000000000003F
:1059C00000000000000000000000000000000000D7
:1059D00000000000000000000000000000000000C7
:1059E0000000000000000000DC580008F858000823
:0459F0000024F4009B
:04000005080001F9F5
:00000001FF
